Component: ARM Compiler 5.06 update 5 (build 528) Tool: armlink [4d35e2]

==============================================================================

Section Cross References

    startup_stm32f40xx.o(RESET) refers to startup_stm32f40xx.o(STACK) for __initial_sp
    startup_stm32f40xx.o(RESET) refers to startup_stm32f40xx.o(.text) for Reset_Handler
    startup_stm32f40xx.o(RESET) refers to stm32f4xx_it.o(i.EXTI1_IRQHandler) for EXTI1_IRQHandler
    startup_stm32f40xx.o(RESET) refers to stm32f4xx_it.o(i.CAN1_RX0_IRQHandler) for CAN1_RX0_IRQHandler
    startup_stm32f40xx.o(RESET) refers to stm32f4xx_it.o(i.TIM5_IRQHandler) for TIM5_IRQHandler
    startup_stm32f40xx.o(RESET) refers to stm32f4xx_it.o(i.CAN2_RX0_IRQHandler) for CAN2_RX0_IRQHandler
    startup_stm32f40xx.o(.text) refers to system_stm32f4xx.o(i.SystemInit) for SystemInit
    startup_stm32f40xx.o(.text) refers to entry.o(.ARM.Collect$$$$00000000) for __main
    system_stm32f4xx.o(i.SystemCoreClockUpdate) refers to system_stm32f4xx.o(.data) for .data
    system_stm32f4xx.o(i.SystemInit) refers to system_stm32f4xx.o(i.SetSysClock) for SetSysClock
    stm32f4xx_adc.o(i.ADC_DeInit) refers to stm32f4xx_rcc.o(i.RCC_APB2PeriphResetCmd) for RCC_APB2PeriphResetCmd
    stm32f4xx_can.o(i.CAN_DeInit) refers to stm32f4xx_rcc.o(i.RCC_APB1PeriphResetCmd) for RCC_APB1PeriphResetCmd
    stm32f4xx_can.o(i.CAN_GetITStatus) refers to stm32f4xx_can.o(i.CheckITStatus) for CheckITStatus
    stm32f4xx_cryp.o(i.CRYP_DeInit) refers to stm32f4xx_rcc.o(i.RCC_AHB2PeriphResetCmd) for RCC_AHB2PeriphResetCmd
    stm32f4xx_cryp_aes.o(i.CRYP_AES_CBC) refers to stm32f4xx_cryp.o(i.CRYP_KeyStructInit) for CRYP_KeyStructInit
    stm32f4xx_cryp_aes.o(i.CRYP_AES_CBC) refers to stm32f4xx_cryp.o(i.CRYP_KeyInit) for CRYP_KeyInit
    stm32f4xx_cryp_aes.o(i.CRYP_AES_CBC) refers to stm32f4xx_cryp.o(i.CRYP_Init) for CRYP_Init
    stm32f4xx_cryp_aes.o(i.CRYP_AES_CBC) refers to stm32f4xx_cryp.o(i.CRYP_IVInit) for CRYP_IVInit
==============================================================================

Removing Unused input sections from the image.

    Removing system_stm32f4xx.o(.rev16_text), (4 bytes).
    Removing system_stm32f4xx.o(.revsh_text), (4 bytes).
    Removing system_stm32f4xx.o(.rrx_text), (6 bytes).
    Removing system_stm32f4xx.o(i.SystemCoreClockUpdate), (136 bytes).
    Removing system_stm32f4xx.o(.data), (20 bytes).
    Removing misc.o(.rev16_text), (4 bytes).
    Removing misc.o(.revsh_text), (4 bytes).
    Removing misc.o(.rrx_text), (6 bytes).
    Removing misc.o(i.NVIC_SetVectorTable), (20 bytes).
    Removing misc.o(i.NVIC_SystemLPConfig), (28 bytes).
    Removing misc.o(i.SysTick_CLKSourceConfig), (28 bytes).
    Removing stm32f4xx_adc.o(.rev16_text), (4 bytes).
    Removing stm32f4xx_adc.o(.revsh_text), (4 bytes).
    Removing stm32f4xx_adc.o(.rrx_text), (6 bytes).
    Removing stm32f4xx_adc.o(i.ADC_AnalogWatchdogCmd), (16 bytes).
    Removing stm32f4xx_adc.o(i.ADC_AnalogWatchdogSingleChannelConfig), (12 bytes).
    Removing stm32f4xx_adc.o(i.ADC_AnalogWatchdogThresholdsConfig), (6 bytes).
    Removing stm32f4xx_adc.o(i.ADC_AutoInjectedConvCmd), (24 bytes).
==============================================================================

Image Symbol Table

    Local Symbols

    Symbol Name                              Value     Ov Type        Size  Object(Section)

    ../clib/../cmprslib/lz77c.c              0x00000000   Number         0  __dclz77c.o ABSOLUTE
    ../clib/microlib/division.c              0x00000000   Number         0  uidiv.o ABSOLUTE
    ../clib/microlib/division.c              0x00000000   Number         0  uldiv.o ABSOLUTE
    ../clib/microlib/errno.c                 0x00000000   Number         0  errno.o ABSOLUTE
    ../clib/microlib/init/entry.s            0x00000000   Number         0  entry11b.o ABSOLUTE
    ../clib/microlib/init/entry.s            0x00000000   Number         0  entry7a.o ABSOLUTE
    ../clib/microlib/init/entry.s            0x00000000   Number         0  entry11a.o ABSOLUTE
    ../clib/microlib/init/entry.s            0x00000000   Number         0  entry10b.o ABSOLUTE
    ../clib/microlib/init/entry.s            0x00000000   Number         0  entry5.o ABSOLUTE
    ../clib/microlib/init/entry.s            0x00000000   Number         0  entry10a.o ABSOLUTE
    ../clib/microlib/init/entry.s            0x00000000   Number         0  entry9a.o ABSOLUTE
    ../clib/microlib/init/entry.s            0x00000000   Number         0  entry9b.o ABSOLUTE
    ../clib/microlib/init/entry.s            0x00000000   Number         0  entry.o ABSOLUTE
    ../clib/microlib/init/entry.s            0x00000000   Number         0  entry8b.o ABSOLUTE
    ../clib/microlib/init/entry.s            0x00000000   Number         0  entry8a.o ABSOLUTE
    ../clib/microlib/init/entry.s            0x00000000   Number         0  entry7b.o ABSOLUTE
    ../clib/microlib/init/entry.s            0x00000000   Number         0  entry2.o ABSOLUTE
    ../clib/microlib/longlong.c              0x00000000   Number         0  llsshr.o ABSOLUTE
    ../clib/microlib/longlong.c              0x00000000   Number         0  llushr.o ABSOLUTE
    ../clib/microlib/longlong.c              0x00000000   Number         0  llshl.o ABSOLUTE
    ../clib/microlib/malloc/malloc.c         0x00000000   Number         0  malloca.o ABSOLUTE
    ../clib/microlib/malloc/malloc.c         0x00000000   Number         0  mallocr.o ABSOLUTE
    ../clib/microlib/malloc/malloc.c         0x00000000   Number         0  malloc.o ABSOLUTE
    ../clib/microlib/malloc/malloc.c         0x00000000   Number         0  mallocra.o ABSOLUTE
    ../clib/microlib/malloc/mvars.c          0x00000000   Number         0  mvars.o ABSOLUTE
    ../clib/microlib/printf/printf.c         0x00000000   Number         0  printf7.o ABSOLUTE
    ../clib/microlib/printf/printf.c         0x00000000   Number         0  printf1.o ABSOLUTE
    ../clib/microlib/printf/printf.c         0x00000000   Number         0  printf6.o ABSOLUTE
    ../clib/microlib/printf/printf.c         0x00000000   Number         0  printf5.o ABSOLUTE
    ../clib/microlib/printf/printf.c         0x00000000   Number         0  printf3.o ABSOLUTE
    ../clib/microlib/printf/printf.c         0x00000000   Number         0  printf2.o ABSOLUTE
    ../clib/microlib/printf/printf.c         0x00000000   Number         0  printfb.o ABSOLUTE
    ../clib/microlib/printf/printf.c         0x00000000   Number         0  printf0.o ABSOLUTE
    ../clib/microlib/printf/printf.c         0x00000000   Number         0  printfa.o ABSOLUTE
    ../clib/microlib/printf/printf.c         0x00000000   Number         0  printf4.o ABSOLUTE
    ../clib/microlib/printf/printf.c         0x00000000   Number         0  printf8.o ABSOLUTE
    ../clib/microlib/printf/stubs.s          0x00000000   Number         0  stubs.o ABSOLUTE
    ../clib/microlib/stdio/streams.c         0x00000000   Number         0  stdout.o ABSOLUTE
    ../clib/microlib/string/memcpy.c         0x00000000   Number         0  memcpyb.o ABSOLUTE
    ../clib/microlib/string/memcpy.c         0x00000000   Number         0  memcpya.o ABSOLUTE
    ../clib/microlib/stubs.s                 0x00000000   Number         0  iusefp.o ABSOLUTE
    ../fplib/microlib/d2f.c                  0x00000000   Number         0  d2f.o ABSOLUTE
    ../fplib/microlib/fpadd.c                0x00000000   Number         0  dadd.o ABSOLUTE
    ../fplib/microlib/fpdiv.c                0x00000000   Number         0  ddiv.o ABSOLUTE
    ../fplib/microlib/fpepilogue.c           0x00000000   Number         0  fepilogue.o ABSOLUTE
    ../fplib/microlib/fpepilogue.c           0x00000000   Number         0  depilogue.o ABSOLUTE
    ../fplib/microlib/fpfix.c                0x00000000   Number         0  dfixui.o ABSOLUTE
    ../fplib/microlib/fpfix.c                0x00000000   Number         0  dfixi.o ABSOLUTE
    ../fplib/microlib/fpfix.c                0x00000000   Number         0  dfixul.o ABSOLUTE
    ../fplib/microlib/fpflt.c                0x00000000   Number         0  dfltui.o ABSOLUTE
    ../fplib/microlib/fpflt.c                0x00000000   Number         0  dflti.o ABSOLUTE
    ../fplib/microlib/fpmul.c                0x00000000   Number         0  dmul.o ABSOLUTE
    ../fplib/microlib/fpneg.c                0x00000000   Number         0  dneg.o ABSOLUTE
    ../fplib/microlib/fpscalb.c              0x00000000   Number         0  dscalb.o ABSOLUTE
    ../fplib/microlib/fpsqrt.c               0x00000000   Number         0  dsqrt.o ABSOLUTE
    ../mathlib/dunder.c                      0x00000000   Number         0  dunder.o ABSOLUTE
    ../mathlib/fabs.c                        0x00000000   Number         0  fabs.o ABSOLUTE
    ../mathlib/fpclassify.c                  0x00000000   Number         0  fpclassify.o ABSOLUTE
    ../mathlib/poly.c                        0x00000000   Number         0  poly.o ABSOLUTE
    ../mathlib/pow.c                         0x00000000   Number         0  pow_x.o ABSOLUTE
    ../mathlib/pow.c                         0x00000000   Number         0  pow.o ABSOLUTE
    ../mathlib/qnan.c                        0x00000000   Number         0  qnan.o ABSOLUTE
    ../mathlib/sqrt.c                        0x00000000   Number         0  sqrt.o ABSOLUTE
    ../mathlib/sqrt.c                        0x00000000   Number         0  sqrt_x.o ABSOLUTE
    ..\..\Libraries\CMSIS\Device\ST\STM32F4xx\Source\Templates\arm\startup_stm32f40xx.s 0x00000000   Number         0  startup_stm32f40xx.o ABSOLUTE
    ..\..\Libraries\CMSIS\Device\ST\STM32F4xx\Source\Templates\system_stm32f4xx.c 0x00000000   Number         0  system_stm32f4xx.o ABSOLUTE
    ..\..\Libraries\STM32F4xx_StdPeriph_Driver\src\misc.c 0x00000000   Number         0  misc.o ABSOLUTE
    ..\..\Libraries\STM32F4xx_StdPeriph_Driver\src\stm32f4xx_adc.c 0x00000000   Number         0  stm32f4xx_adc.o ABSOLUTE
    ..\..\Libraries\STM32F4xx_StdPeriph_Driver\src\stm32f4xx_can.c 0x00000000   Number         0  stm32f4xx_can.o ABSOLUTE
    ..\..\Libraries\STM32F4xx_StdPeriph_Driver\src\stm32f4xx_cec.c 0x00000000   Number         0  stm32f4xx_cec.o ABSOLUTE
    ..\..\Libraries\STM32F4xx_StdPeriph_Driver\src\stm32f4xx_crc.c 0x00000000   Number         0  stm32f4xx_crc.o ABSOLUTE
    ..\..\Libraries\STM32F4xx_StdPeriph_Driver\src\stm32f4xx_cryp.c 0x00000000   Number         0  stm32f4xx_cryp.o ABSOLUTE
    ..\..\Libraries\STM32F4xx_StdPeriph_Driver\src\stm32f4xx_cryp_aes.c 0x00000000   Number         0  stm32f4xx_cryp_aes.o ABSOLUTE
    ..\..\Libraries\STM32F4xx_StdPeriph_Driver\src\stm32f4xx_cryp_des.c 0x00000000   Number         0  stm32f4xx_cryp_des.o ABSOLUTE
    ..\..\Libraries\STM32F4xx_StdPeriph_Driver\src\stm32f4xx_cryp_tdes.c 0x00000000   Number         0  stm32f4xx_cryp_tdes.o ABSOLUTE
    ..\..\Libraries\STM32F4xx_StdPeriph_Driver\src\stm32f4xx_dac.c 0x00000000   Number         0  stm32f4xx_dac.o ABSOLUTE
    ..\..\Libraries\STM32F4xx_StdPeriph_Driver\src\stm32f4xx_dbgmcu.c 0x00000000   Number         0  stm32f4xx_dbgmcu.o ABSOLUTE
    ..\..\Libraries\STM32F4xx_StdPeriph_Driver\src\stm32f4xx_dcmi.c 0x00000000   Number         0  stm32f4xx_dcmi.o ABSOLUTE
    ..\..\Libraries\STM32F4xx_StdPeriph_Driver\src\stm32f4xx_dma.c 0x00000000   Number         0  stm32f4xx_dma.o ABSOLUTE
    ..\..\Libraries\STM32F4xx_StdPeriph_Driver\src\stm32f4xx_exti.c 0x00000000   Number         0  stm32f4xx_exti.o ABSOLUTE
    ..\..\Libraries\STM32F4xx_StdPeriph_Driver\src\stm32f4xx_flash.c 0x00000000   Number         0  stm32f4xx_flash.o ABSOLUTE
    ..\..\Libraries\STM32F4xx_StdPeriph_Driver\src\stm32f4xx_flash_ramfunc.c 0x00000000   Number         0  stm32f4xx_flash_ramfunc.o ABSOLUTE
    ..\..\Libraries\STM32F4xx_StdPeriph_Driver\src\stm32f4xx_fmpi2c.c 0x00000000   Number         0  stm32f4xx_fmpi2c.o ABSOLUTE
    ..\..\Libraries\STM32F4xx_StdPeriph_Driver\src\stm32f4xx_fsmc.c 0x00000000   Number         0  stm32f4xx_fsmc.o ABSOLUTE
    ..\..\Libraries\STM32F4xx_StdPeriph_Driver\src\stm32f4xx_gpio.c 0x00000000   Number         0  stm32f4xx_gpio.o ABSOLUTE
    ..\..\Libraries\STM32F4xx_StdPeriph_Driver\src\stm32f4xx_hash.c 0x00000000   Number         0  stm32f4xx_hash.o ABSOLUTE
    ..\..\Libraries\STM32F4xx_StdPeriph_Driver\src\stm32f4xx_hash_md5.c 0x00000000   Number         0  stm32f4xx_hash_md5.o ABSOLUTE
    ..\..\Libraries\STM32F4xx_StdPeriph_Driver\src\stm32f4xx_hash_sha1.c 0x00000000   Number         0  stm32f4xx_hash_sha1.o ABSOLUTE
    ..\..\Libraries\STM32F4xx_StdPeriph_Driver\src\stm32f4xx_i2c.c 0x00000000   Number         0  stm32f4xx_i2c.o ABSOLUTE
    ..\..\Libraries\STM32F4xx_StdPeriph_Driver\src\stm32f4xx_iwdg.c 0x00000000   Number         0  stm32f4xx_iwdg.o ABSOLUTE
    ..\..\Libraries\STM32F4xx_StdPeriph_Driver\src\stm32f4xx_pwr.c 0x00000000   Number         0  stm32f4xx_pwr.o ABSOLUTE
    ..\..\Libraries\STM32F4xx_StdPeriph_Driver\src\stm32f4xx_qspi.c 0x00000000   Number         0  stm32f4xx_qspi.o ABSOLUTE
    ..\..\Libraries\STM32F4xx_StdPeriph_Driver\src\stm32f4xx_rcc.c 0x00000000   Number         0  stm32f4xx_rcc.o ABSOLUTE
    ..\..\Libraries\STM32F4xx_StdPeriph_Driver\src\stm32f4xx_rng.c 0x00000000   Number         0  stm32f4xx_rng.o ABSOLUTE
    ..\..\Libraries\STM32F4xx_StdPeriph_Driver\src\stm32f4xx_rtc.c 0x00000000   Number         0  stm32f4xx_rtc.o ABSOLUTE
    ..\..\Libraries\STM32F4xx_StdPeriph_Driver\src\stm32f4xx_sai.c 0x00000000   Number         0  stm32f4xx_sai.o ABSOLUTE
    ..\..\Libraries\STM32F4xx_StdPeriph_Driver\src\stm32f4xx_sdio.c 0x00000000   Number         0  stm32f4xx_sdio.o ABSOLUTE
    ..\..\Libraries\STM32F4xx_StdPeriph_Driver\src\stm32f4xx_spdifrx.c 0x00000000   Number         0  stm32f4xx_spdifrx.o ABSOLUTE
    ..\..\Libraries\STM32F4xx_StdPeriph_Driver\src\stm32f4xx_spi.c 0x00000000   Number         0  stm32f4xx_spi.o ABSOLUTE
    ..\..\Libraries\STM32F4xx_StdPeriph_Driver\src\stm32f4xx_syscfg.c 0x00000000   Number         0  stm32f4xx_syscfg.o ABSOLUTE
    ..\..\Libraries\STM32F4xx_StdPeriph_Driver\src\stm32f4xx_tim.c 0x00000000   Number         0  stm32f4xx_tim.o ABSOLUTE
    ..\..\Libraries\STM32F4xx_StdPeriph_Driver\src\stm32f4xx_usart.c 0x00000000   Number         0  stm32f4xx_usart.o ABSOLUTE
    ..\..\Libraries\STM32F4xx_StdPeriph_Driver\src\stm32f4xx_wwdg.c 0x00000000   Number         0  stm32f4xx_wwdg.o ABSOLUTE
    ..\..\User\ADC_DMA\adc.c                 0x00000000   Number         0  adc.o ABSOLUTE
    ..\..\User\ASMS\asms.c                   0x00000000   Number         0  asms.o ABSOLUTE
    ..\..\User\ASSI\assi.c                   0x00000000   Number         0  assi.o ABSOLUTE
    ..\..\User\BACKUP_IO\bckp_io.c           0x00000000   Number         0  bckp_io.o ABSOLUTE
    ..\..\User\Beep\beep.c                   0x00000000   Number         0  beep.o ABSOLUTE
    ..\..\User\Brake_Led\brake_led.c         0x00000000   Number         0  brake_led.o ABSOLUTE
    ..\..\User\Circult\circult.c             0x00000000   Number         0  circult.o ABSOLUTE
    ..\..\User\Msg_queue\msg_queue.c         0x00000000   Number         0  msg_queue.o ABSOLUTE
    ..\..\User\Timer\timer.c                 0x00000000   Number         0  timer.o ABSOLUTE
    ..\..\User\can\can.c                     0x00000000   Number         0  can.o ABSOLUTE
    ..\..\User\led\led.c                     0x00000000   Number         0  led.o ABSOLUTE
    ..\..\User\main.c                        0x00000000   Number         0  main.o ABSOLUTE
    ..\..\User\nvic\nvic.c                   0x00000000   Number         0  nvic.o ABSOLUTE
    ..\..\User\pid\pid.c                     0x00000000   Number         0  pid.o ABSOLUTE
    ..\..\User\rtc\rtc.c                     0x00000000   Number         0  rtc.o ABSOLUTE
    ..\..\User\stm32f4xx_it.c                0x00000000   Number         0  stm32f4xx_it.o ABSOLUTE
    ..\..\User\usart\debug_usart.c           0x00000000   Number         0  debug_usart.o ABSOLUTE
    ..\\..\\Libraries\\CMSIS\\Device\\ST\\STM32F4xx\\Source\\Templates\\system_stm32f4xx.c 0x00000000   Number         0  system_stm32f4xx.o ABSOLUTE
    ..\\..\\Libraries\\STM32F4xx_StdPeriph_Driver\\src\\misc.c 0x00000000   Number         0  misc.o ABSOLUTE
    ..\\..\\Libraries\\STM32F4xx_StdPeriph_Driver\\src\\stm32f4xx_adc.c 0x00000000   Number         0  stm32f4xx_adc.o ABSOLUTE
    ..\\..\\Libraries\\STM32F4xx_StdPeriph_Driver\\src\\stm32f4xx_can.c 0x00000000   Number         0  stm32f4xx_can.o ABSOLUTE
    ..\\..\\Libraries\\STM32F4xx_StdPeriph_Driver\\src\\stm32f4xx_cec.c 0x00000000   Number         0  stm32f4xx_cec.o ABSOLUTE
    ..\\..\\Libraries\\STM32F4xx_StdPeriph_Driver\\src\\stm32f4xx_crc.c 0x00000000   Number         0  stm32f4xx_crc.o ABSOLUTE
    ..\\..\\Libraries\\STM32F4xx_StdPeriph_Driver\\src\\stm32f4xx_cryp.c 0x00000000   Number         0  stm32f4xx_cryp.o ABSOLUTE
    ..\\..\\Libraries\\STM32F4xx_StdPeriph_Driver\\src\\stm32f4xx_cryp_aes.c 0x00000000   Number         0  stm32f4xx_cryp_aes.o ABSOLUTE
    ..\\..\\Libraries\\STM32F4xx_StdPeriph_Driver\\src\\stm32f4xx_cryp_des.c 0x00000000   Number         0  stm32f4xx_cryp_des.o ABSOLUTE
    ..\\..\\Libraries\\STM32F4xx_StdPeriph_Driver\\src\\stm32f4xx_cryp_tdes.c 0x00000000   Number         0  stm32f4xx_cryp_tdes.o ABSOLUTE
    ..\\..\\Libraries\\STM32F4xx_StdPeriph_Driver\\src\\stm32f4xx_dac.c 0x00000000   Number         0  stm32f4xx_dac.o ABSOLUTE
    ..\\..\\Libraries\\STM32F4xx_StdPeriph_Driver\\src\\stm32f4xx_dbgmcu.c 0x00000000   Number         0  stm32f4xx_dbgmcu.o ABSOLUTE
    ..\\..\\Libraries\\STM32F4xx_StdPeriph_Driver\\src\\stm32f4xx_dcmi.c 0x00000000   Number         0  stm32f4xx_dcmi.o ABSOLUTE
    ..\\..\\Libraries\\STM32F4xx_StdPeriph_Driver\\src\\stm32f4xx_dma.c 0x00000000   Number         0  stm32f4xx_dma.o ABSOLUTE
    ..\\..\\Libraries\\STM32F4xx_StdPeriph_Driver\\src\\stm32f4xx_exti.c 0x00000000   Number         0  stm32f4xx_exti.o ABSOLUTE
    ..\\..\\Libraries\\STM32F4xx_StdPeriph_Driver\\src\\stm32f4xx_flash.c 0x00000000   Number         0  stm32f4xx_flash.o ABSOLUTE
    ..\\..\\Libraries\\STM32F4xx_StdPeriph_Driver\\src\\stm32f4xx_flash_ramfunc.c 0x00000000   Number         0  stm32f4xx_flash_ramfunc.o ABSOLUTE
    ..\\..\\Libraries\\STM32F4xx_StdPeriph_Driver\\src\\stm32f4xx_fmpi2c.c 0x00000000   Number         0  stm32f4xx_fmpi2c.o ABSOLUTE
    ..\\..\\Libraries\\STM32F4xx_StdPeriph_Driver\\src\\stm32f4xx_fsmc.c 0x00000000   Number         0  stm32f4xx_fsmc.o ABSOLUTE
    ..\\..\\Libraries\\STM32F4xx_StdPeriph_Driver\\src\\stm32f4xx_gpio.c 0x00000000   Number         0  stm32f4xx_gpio.o ABSOLUTE
    ..\\..\\Libraries\\STM32F4xx_StdPeriph_Driver\\src\\stm32f4xx_hash.c 0x00000000   Number         0  stm32f4xx_hash.o ABSOLUTE
    ..\\..\\Libraries\\STM32F4xx_StdPeriph_Driver\\src\\stm32f4xx_hash_md5.c 0x00000000   Number         0  stm32f4xx_hash_md5.o ABSOLUTE
    ..\\..\\Libraries\\STM32F4xx_StdPeriph_Driver\\src\\stm32f4xx_hash_sha1.c 0x00000000   Number         0  stm32f4xx_hash_sha1.o ABSOLUTE
    ..\\..\\Libraries\\STM32F4xx_StdPeriph_Driver\\src\\stm32f4xx_i2c.c 0x00000000   Number         0  stm32f4xx_i2c.o ABSOLUTE
    ..\\..\\Libraries\\STM32F4xx_StdPeriph_Driver\\src\\stm32f4xx_iwdg.c 0x00000000   Number         0  stm32f4xx_iwdg.o ABSOLUTE
    ..\\..\\Libraries\\STM32F4xx_StdPeriph_Driver\\src\\stm32f4xx_pwr.c 0x00000000   Number         0  stm32f4xx_pwr.o ABSOLUTE
    ..\\..\\Libraries\\STM32F4xx_StdPeriph_Driver\\src\\stm32f4xx_qspi.c 0x00000000   Number         0  stm32f4xx_qspi.o ABSOLUTE
    ..\\..\\Libraries\\STM32F4xx_StdPeriph_Driver\\src\\stm32f4xx_rcc.c 0x00000000   Number         0  stm32f4xx_rcc.o ABSOLUTE
    ..\\..\\Libraries\\STM32F4xx_StdPeriph_Driver\\src\\stm32f4xx_rng.c 0x00000000   Number         0  stm32f4xx_rng.o ABSOLUTE
    ..\\..\\Libraries\\STM32F4xx_StdPeriph_Driver\\src\\stm32f4xx_rtc.c 0x00000000   Number         0  stm32f4xx_rtc.o ABSOLUTE
    ..\\..\\Libraries\\STM32F4xx_StdPeriph_Driver\\src\\stm32f4xx_sai.c 0x00000000   Number         0  stm32f4xx_sai.o ABSOLUTE
    ..\\..\\Libraries\\STM32F4xx_StdPeriph_Driver\\src\\stm32f4xx_sdio.c 0x00000000   Number         0  stm32f4xx_sdio.o ABSOLUTE
    ..\\..\\Libraries\\STM32F4xx_StdPeriph_Driver\\src\\stm32f4xx_spdifrx.c 0x00000000   Number         0  stm32f4xx_spdifrx.o ABSOLUTE
    ..\\..\\Libraries\\STM32F4xx_StdPeriph_Driver\\src\\stm32f4xx_spi.c 0x00000000   Number         0  stm32f4xx_spi.o ABSOLUTE
    ..\\..\\Libraries\\STM32F4xx_StdPeriph_Driver\\src\\stm32f4xx_syscfg.c 0x00000000   Number         0  stm32f4xx_syscfg.o ABSOLUTE
    ..\\..\\Libraries\\STM32F4xx_StdPeriph_Driver\\src\\stm32f4xx_tim.c 0x00000000   Number         0  stm32f4xx_tim.o ABSOLUTE
    ..\\..\\Libraries\\STM32F4xx_StdPeriph_Driver\\src\\stm32f4xx_usart.c 0x00000000   Number         0  stm32f4xx_usart.o ABSOLUTE
    ..\\..\\Libraries\\STM32F4xx_StdPeriph_Driver\\src\\stm32f4xx_wwdg.c 0x00000000   Number         0  stm32f4xx_wwdg.o ABSOLUTE
    ..\\..\\User\\ADC_DMA\\adc.c             0x00000000   Number         0  adc.o ABSOLUTE
    ..\\..\\User\\ASMS\\asms.c               0x00000000   Number         0  asms.o ABSOLUTE
    ..\\..\\User\\ASSI\\assi.c               0x00000000   Number         0  assi.o ABSOLUTE
    ..\\..\\User\\BACKUP_IO\\bckp_io.c       0x00000000   Number         0  bckp_io.o ABSOLUTE
    ..\\..\\User\\Beep\\beep.c               0x00000000   Number         0  beep.o ABSOLUTE
    ..\\..\\User\\Brake_Led\\brake_led.c     0x00000000   Number         0  brake_led.o ABSOLUTE
    ..\\..\\User\\Circult\\circult.c         0x00000000   Number         0  circult.o ABSOLUTE
    ..\\..\\User\\Msg_queue\\msg_queue.c     0x00000000   Number         0  msg_queue.o ABSOLUTE
    ..\\..\\User\\Timer\\timer.c             0x00000000   Number         0  timer.o ABSOLUTE
    ..\\..\\User\\can\\can.c                 0x00000000   Number         0  can.o ABSOLUTE
    ..\\..\\User\\led\\led.c                 0x00000000   Number         0  led.o ABSOLUTE
    ..\\..\\User\\main.c                     0x00000000   Number         0  main.o ABSOLUTE
    ..\\..\\User\\nvic\\nvic.c               0x00000000   Number         0  nvic.o ABSOLUTE
    ..\\..\\User\\pid\\pid.c                 0x00000000   Number         0  pid.o ABSOLUTE
    ..\\..\\User\\rtc\\rtc.c                 0x00000000   Number         0  rtc.o ABSOLUTE
    ..\\..\\User\\stm32f4xx_it.c             0x00000000   Number         0  stm32f4xx_it.o ABSOLUTE
    ..\\..\\User\\usart\\debug_usart.c       0x00000000   Number         0  debug_usart.o ABSOLUTE
    cdcmple.s                                0x00000000   Number         0  cdcmple.o ABSOLUTE
    cdrcmple.s                               0x00000000   Number         0  cdrcmple.o ABSOLUTE
    dc.s                                     0x00000000   Number         0  dc.o ABSOLUTE
    handlers.s                               0x00000000   Number         0  handlers.o ABSOLUTE
    init.s                                   0x00000000   Number         0  init.o ABSOLUTE
    RESET                                    0x08000000   Section      392  startup_stm32f40xx.o(RESET)
    .ARM.Collect$$$$00000000                 0x08000188   Section        0  entry.o(.ARM.Collect$$$$00000000)
    .ARM.Collect$$$$00000001                 0x08000188   Section        4  entry2.o(.ARM.Collect$$$$00000001)
    .ARM.Collect$$$$00000004                 0x0800018c   Section        4  entry5.o(.ARM.Collect$$$$00000004)
    .ARM.Collect$$$$00000008                 0x08000190   Section        0  entry7b.o(.ARM.Collect$$$$00000008)
    .ARM.Collect$$$$0000000A                 0x08000190   Section        0  entry8b.o(.ARM.Collect$$$$0000000A)
    .ARM.Collect$$$$0000000B                 0x08000190   Section        8  entry9a.o(.ARM.Collect$$$$0000000B)
    .ARM.Collect$$$$0000000D                 0x08000198   Section        0  entry10a.o(.ARM.Collect$$$$0000000D)
    .ARM.Collect$$$$0000000F                 0x08000198   Section        0  entry11a.o(.ARM.Collect$$$$0000000F)
    .ARM.Collect$$$$00002712                 0x08000198   Section        4  entry2.o(.ARM.Collect$$$$00002712)
    __lit__00000000                          0x08000198   Data           4  entry2.o(.ARM.Collect$$$$00002712)
    .text                                    0x0800019c   Section       36  startup_stm32f40xx.o(.text)
    $v0                                      0x0800019c   Number         0  startup_stm32f40xx.o(.text)
    .text                                    0x080001c0   Section        0  memcpya.o(.text)
    .text                                    0x080001e4   Section        0  dadd.o(.text)
    .text                                    0x08000332   Section        0  dmul.o(.text)
    .text                                    0x08000416   Section        0  ddiv.o(.text)
    .text                                    0x080004f4   Section        0  dflti.o(.text)
    .text                                    0x08000516   Section        0  dfltui.o(.text)
    .text                                    0x08000530   Section        0  dfixi.o(.text)
    .text                                    0x0800056e   Section        0  dfixui.o(.text)
    .text                                    0x080005a0   Section       48  cdcmple.o(.text)
    .text                                    0x080005d0   Section       48  cdrcmple.o(.text)
    .text                                    0x08000600   Section        0  d2f.o(.text)
    .text                                    0x08000638   Section        0  llshl.o(.text)
    .text                                    0x08000656   Section        0  llushr.o(.text)
    .text                                    0x08000676   Section        0  llsshr.o(.text)
    .text                                    0x0800069a   Section        0  fepilogue.o(.text)
    .text                                    0x0800069a   Section        0  iusefp.o(.text)
    .text                                    0x08000708   Section        0  depilogue.o(.text)
    .text                                    0x080007c2   Section        0  dscalb.o(.text)
    .text                                    0x080007f0   Section       36  init.o(.text)
    .text                                    0x08000814   Section        0  dsqrt.o(.text)
    .text                                    0x080008b6   Section        0  __dclz77c.o(.text)
    i.ADC_Cmd                                0x08000914   Section        0  stm32f4xx_adc.o(i.ADC_Cmd)
    i.ADC_CommonInit                         0x0800092c   Section        0  stm32f4xx_adc.o(i.ADC_CommonInit)
    i.ADC_DMACmd                             0x08000954   Section        0  stm32f4xx_adc.o(i.ADC_DMACmd)
    i.ADC_DMARequestAfterLastTransferCmd     0x0800096c   Section        0  stm32f4xx_adc.o(i.ADC_DMARequestAfterLastTransferCmd)
    i.ADC_GPIO_Config                        0x08000984   Section        0  adc.o(i.ADC_GPIO_Config)
    ADC_GPIO_Config                          0x08000985   Thumb Code    94  adc.o(i.ADC_GPIO_Config)
    i.ADC_INIT                               0x080009ec   Section        0  adc.o(i.ADC_INIT)
    i.ADC_Init                               0x080009fc   Section        0  stm32f4xx_adc.o(i.ADC_Init)
    i.ADC_Mode_Config                        0x08000a48   Section        0  adc.o(i.ADC_Mode_Config)
    ADC_Mode_Config                          0x08000a49   Thumb Code   214  adc.o(i.ADC_Mode_Config)
    i.ADC_RegularChannelConfig               0x08000b2c   Section        0  stm32f4xx_adc.o(i.ADC_RegularChannelConfig)
    i.ADC_SoftwareStartConv                  0x08000ba0   Section        0  stm32f4xx_adc.o(i.ADC_SoftwareStartConv)
    i.ADC_StructInit                         0x08000baa   Section        0  stm32f4xx_adc.o(i.ADC_StructInit)
    i.ASMS_GPIO_Config                       0x08000bc0   Section        0  asms.o(i.ASMS_GPIO_Config)
    i.ASSI_GPIO_Config                       0x08000bec   Section        0  assi.o(i.ASSI_GPIO_Config)
    i.BCKP_IO_GPIO_Config                    0x08000c40   Section        0  bckp_io.o(i.BCKP_IO_GPIO_Config)
    i.BEEP_GPIO_Config                       0x08000cb0   Section        0  beep.o(i.BEEP_GPIO_Config)
    i.BRAKE_LED_GPIO_Config                  0x08000cec   Section        0  brake_led.o(i.BRAKE_LED_GPIO_Config)
    i.CAN1_Config                            0x08000d20   Section        0  can.o(i.CAN1_Config)
    i.CAN1_Ctrl_Send                         0x08000e44   Section        0  stm32f4xx_it.o(i.CAN1_Ctrl_Send)
    i.CAN1_RX0_IRQHandler                    0x08000f38   Section        0  stm32f4xx_it.o(i.CAN1_RX0_IRQHandler)
    i.CAN2_Config                            0x080010d8   Section        0  can.o(i.CAN2_Config)
    i.CAN2_Ctrl_Send                         0x08001204   Section        0  stm32f4xx_it.o(i.CAN2_Ctrl_Send)
    i.CAN2_RX0_IRQHandler                    0x08001244   Section        0  stm32f4xx_it.o(i.CAN2_RX0_IRQHandler)
    i.CAN_DeInit                             0x08001378   Section        0  stm32f4xx_can.o(i.CAN_DeInit)
    i.CAN_FilterInit                         0x080013b0   Section        0  stm32f4xx_can.o(i.CAN_FilterInit)
    i.CAN_ITConfig                           0x08001484   Section        0  stm32f4xx_can.o(i.CAN_ITConfig)
    i.CAN_Init                               0x08001498   Section        0  stm32f4xx_can.o(i.CAN_Init)
    i.CAN_Receive                            0x0800159c   Section        0  stm32f4xx_can.o(i.CAN_Receive)
    i.CAN_StructInit                         0x0800161e   Section        0  stm32f4xx_can.o(i.CAN_StructInit)
    i.CAN_Transmit                           0x0800163e   Section        0  stm32f4xx_can.o(i.CAN_Transmit)
    i.CAN_TransmitStatus                     0x080016f4   Section        0  stm32f4xx_can.o(i.CAN_TransmitStatus)
    i.DMA_Cmd                                0x0800177c   Section        0  stm32f4xx_dma.o(i.DMA_Cmd)
    i.DMA_Init                               0x08001794   Section        0  stm32f4xx_dma.o(i.DMA_Init)
    i.Debug_USART_Config                     0x080017e8   Section        0  debug_usart.o(i.Debug_USART_Config)
    i.EXTI1_IRQHandler                       0x08001880   Section        0  stm32f4xx_it.o(i.EXTI1_IRQHandler)
    i.EXTI_ClearITPendingBit                 0x080018c0   Section        0  stm32f4xx_exti.o(i.EXTI_ClearITPendingBit)
    i.EXTI_GetITStatus                       0x080018cc   Section        0  stm32f4xx_exti.o(i.EXTI_GetITStatus)
    i.EXTI_Init                              0x080018e0   Section        0  stm32f4xx_exti.o(i.EXTI_Init)
    i.GPIO_Init                              0x08001954   Section        0  stm32f4xx_gpio.o(i.GPIO_Init)
    i.GPIO_PinAFConfig                       0x080019d0   Section        0  stm32f4xx_gpio.o(i.GPIO_PinAFConfig)
    i.GPIO_ReadInputDataBit                  0x080019f0   Section        0  stm32f4xx_gpio.o(i.GPIO_ReadInputDataBit)
    i.GPIO_ResetBits                         0x080019fe   Section        0  stm32f4xx_gpio.o(i.GPIO_ResetBits)
    i.GPIO_SetBits                           0x08001a02   Section        0  stm32f4xx_gpio.o(i.GPIO_SetBits)
    i.InitQueue                              0x08001a06   Section        0  msg_queue.o(i.InitQueue)
    i.Init_CanMsg_Queue                      0x08001a24   Section        0  msg_queue.o(i.Init_CanMsg_Queue)
    i.LED_GPIO_Config                        0x08001a44   Section        0  led.o(i.LED_GPIO_Config)
    i.NVIC_Configure                         0x08001a94   Section        0  nvic.o(i.NVIC_Configure)
    i.NVIC_Init                              0x08001af8   Section        0  misc.o(i.NVIC_Init)
    i.NVIC_PriorityGroupConfig               0x08001b60   Section        0  misc.o(i.NVIC_PriorityGroupConfig)
    i.PWR_BackupAccessCmd                    0x08001b74   Section        0  stm32f4xx_pwr.o(i.PWR_BackupAccessCmd)
    i.RCC_AHB1PeriphClockCmd                 0x08001b80   Section        0  stm32f4xx_rcc.o(i.RCC_AHB1PeriphClockCmd)
    i.RCC_APB1PeriphClockCmd                 0x08001b9c   Section        0  stm32f4xx_rcc.o(i.RCC_APB1PeriphClockCmd)
    i.RCC_APB1PeriphResetCmd                 0x08001bb8   Section        0  stm32f4xx_rcc.o(i.RCC_APB1PeriphResetCmd)
    i.RCC_APB2PeriphClockCmd                 0x08001bd4   Section        0  stm32f4xx_rcc.o(i.RCC_APB2PeriphClockCmd)
    i.RCC_GetClocksFreq                      0x08001bf0   Section        0  stm32f4xx_rcc.o(i.RCC_GetClocksFreq)
    i.RCC_GetFlagStatus                      0x08001c94   Section        0  stm32f4xx_rcc.o(i.RCC_GetFlagStatus)
    i.RCC_LSEConfig                          0x08001ccc   Section        0  stm32f4xx_rcc.o(i.RCC_LSEConfig)
    i.RCC_RTCCLKCmd                          0x08001cec   Section        0  stm32f4xx_rcc.o(i.RCC_RTCCLKCmd)
    i.RCC_RTCCLKConfig                       0x08001cf8   Section        0  stm32f4xx_rcc.o(i.RCC_RTCCLKConfig)
    i.ROS_Ctrl_Send                          0x08001d28   Section        0  stm32f4xx_it.o(i.ROS_Ctrl_Send)
    i.RTC_Bcd2ToByte                         0x08001d68   Section        0  stm32f4xx_rtc.o(i.RTC_Bcd2ToByte)
    RTC_Bcd2ToByte                           0x08001d69   Thumb Code    18  stm32f4xx_rtc.o(i.RTC_Bcd2ToByte)
    i.RTC_ByteToBcd2                         0x08001d7a   Section        0  stm32f4xx_rtc.o(i.RTC_ByteToBcd2)
    RTC_ByteToBcd2                           0x08001d7b   Thumb Code    24  stm32f4xx_rtc.o(i.RTC_ByteToBcd2)
    i.RTC_CLK_Config                         0x08001d92   Section        0  rtc.o(i.RTC_CLK_Config)
    i.RTC_EnterInitMode                      0x08001de4   Section        0  stm32f4xx_rtc.o(i.RTC_EnterInitMode)
    i.RTC_ExitInitMode                       0x08001e28   Section        0  stm32f4xx_rtc.o(i.RTC_ExitInitMode)
    i.RTC_GetDate                            0x08001e38   Section        0  stm32f4xx_rtc.o(i.RTC_GetDate)
    i.RTC_GetTime                            0x08001e80   Section        0  stm32f4xx_rtc.o(i.RTC_GetTime)
    i.RTC_Init                               0x08001ecc   Section        0  stm32f4xx_rtc.o(i.RTC_Init)
    i.RTC_SetDate                            0x08001f1c   Section        0  stm32f4xx_rtc.o(i.RTC_SetDate)
    i.RTC_SetTime                            0x08001fc0   Section        0  stm32f4xx_rtc.o(i.RTC_SetTime)
    i.RTC_TimeAndDate_Set                    0x08002068   Section        0  rtc.o(i.RTC_TimeAndDate_Set)
    i.RTC_WaitForSynchro                     0x080020bc   Section        0  stm32f4xx_rtc.o(i.RTC_WaitForSynchro)
    i.RTC_WriteBackupRegister                0x08002108   Section        0  stm32f4xx_rtc.o(i.RTC_WriteBackupRegister)
    i.SC_GPIO_Config                         0x0800211c   Section        0  circult.o(i.SC_GPIO_Config)
    i.SYSCFG_EXTILineConfig                  0x0800214c   Section        0  stm32f4xx_syscfg.o(i.SYSCFG_EXTILineConfig)
    i.SetSysClock                            0x08002178   Section        0  system_stm32f4xx.o(i.SetSysClock)
    SetSysClock                              0x08002179   Thumb Code   168  system_stm32f4xx.o(i.SetSysClock)
    i.SystemInit                             0x08002230   Section        0  system_stm32f4xx.o(i.SystemInit)
    i.TIM5_IRQHandler                        0x0800228c   Section        0  stm32f4xx_it.o(i.TIM5_IRQHandler)
    i.TIM_ClearITPendingBit                  0x08003858   Section        0  stm32f4xx_tim.o(i.TIM_ClearITPendingBit)
    i.TIM_Cmd                                0x0800385e   Section        0  stm32f4xx_tim.o(i.TIM_Cmd)
    i.TIM_GetITStatus                        0x08003876   Section        0  stm32f4xx_tim.o(i.TIM_GetITStatus)
    i.TIM_ITConfig                           0x0800388e   Section        0  stm32f4xx_tim.o(i.TIM_ITConfig)
    i.TIM_TimeBaseInit                       0x080038a4   Section        0  stm32f4xx_tim.o(i.TIM_TimeBaseInit)
    i.TIM_Timer_Init                         0x08003920   Section        0  timer.o(i.TIM_Timer_Init)
    i.USART_Cmd                              0x08003960   Section        0  stm32f4xx_usart.o(i.USART_Cmd)
    i.USART_Init                             0x08003978   Section        0  stm32f4xx_usart.o(i.USART_Init)
    i.USART_SendData                         0x08003a34   Section        0  stm32f4xx_usart.o(i.USART_SendData)
    i.__ARM_fpclassify                       0x08003a3c   Section        0  fpclassify.o(i.__ARM_fpclassify)
    i.__hardfp_pow                           0x08003a70   Section        0  pow.o(i.__hardfp_pow)
    i.__kernel_poly                          0x080046c0   Section        0  poly.o(i.__kernel_poly)
    i.__mathlib_dbl_divzero                  0x080047b8   Section        0  dunder.o(i.__mathlib_dbl_divzero)
    i.__mathlib_dbl_infnan2                  0x080047e8   Section        0  dunder.o(i.__mathlib_dbl_infnan2)
    i.__mathlib_dbl_invalid                  0x08004800   Section        0  dunder.o(i.__mathlib_dbl_invalid)
    i.__mathlib_dbl_overflow                 0x08004820   Section        0  dunder.o(i.__mathlib_dbl_overflow)
    i.__mathlib_dbl_underflow                0x08004840   Section        0  dunder.o(i.__mathlib_dbl_underflow)
    i.__scatterload_copy                     0x08004860   Section       14  handlers.o(i.__scatterload_copy)
    i.__scatterload_null                     0x0800486e   Section        2  handlers.o(i.__scatterload_null)
    i.__scatterload_zeroinit                 0x08004870   Section       14  handlers.o(i.__scatterload_zeroinit)
    i.__set_errno                            0x08004880   Section        0  errno.o(i.__set_errno)
    i.fabs                                   0x0800488c   Section        0  fabs.o(i.fabs)
    i.isBrake                                0x080048a4   Section        0  stm32f4xx_it.o(i.isBrake)
    i.main                                   0x080048e4   Section        0  main.o(i.main)
    i.malloc                                 0x08004964   Section        0  malloc.o(i.malloc)
    i.sqrt                                   0x080049d0   Section        0  sqrt.o(i.sqrt)
    .constdata                               0x08004a40   Section      136  pow.o(.constdata)
    bp                                       0x08004a40   Data          16  pow.o(.constdata)
    dp_h                                     0x08004a50   Data          16  pow.o(.constdata)
    dp_l                                     0x08004a60   Data          16  pow.o(.constdata)
    L                                        0x08004a70   Data          48  pow.o(.constdata)
    P                                        0x08004aa0   Data          40  pow.o(.constdata)
    .constdata                               0x08004ac8   Section        8  qnan.o(.constdata)
    .data                                    0x20000000   Section       16  stm32f4xx_rcc.o(.data)
    APBAHBPrescTable                         0x20000000   Data          16  stm32f4xx_rcc.o(.data)
    .data                                    0x20000010   Section       96  stm32f4xx_it.o(.data)
    .data                                    0x20000070   Section        6  adc.o(.data)
    .data                                    0x20000078   Section       20  can.o(.data)
    .data                                    0x2000008c   Section       20  can.o(.data)
    .data                                    0x200000a0   Section       20  can.o(.data)
    .data                                    0x200000b4   Section       20  can.o(.data)
    .data                                    0x200000c8   Section       20  can.o(.data)
    .data                                    0x200000dc   Section       20  can.o(.data)
    .data                                    0x200000f0   Section       20  can.o(.data)
    .data                                    0x20000104   Section       20  can.o(.data)
    .data                                    0x20000118   Section       20  can.o(.data)
    .data                                    0x2000012c   Section       20  can.o(.data)
    .data                                    0x20000140   Section       20  can.o(.data)
    .data                                    0x20000154   Section       20  can.o(.data)
    .data                                    0x20000168   Section       20  can.o(.data)
    .data                                    0x2000017c   Section       20  can.o(.data)
    .data                                    0x20000190   Section       20  can.o(.data)
    .data                                    0x200001a4   Section       20  can.o(.data)
    .data                                    0x200001b8   Section       20  can.o(.data)
    .data                                    0x200001cc   Section       20  can.o(.data)
    .data                                    0x200001e0   Section       16  msg_queue.o(.data)
    .data                                    0x200001f0   Section        4  mvars.o(.data)
    .data                                    0x200001f4   Section        4  mvars.o(.data)
    .data                                    0x200001f8   Section        4  errno.o(.data)
    _errno                                   0x200001f8   Data           4  errno.o(.data)
    .bss                                     0x200001fc   Section      176  stm32f4xx_it.o(.bss)
    HEAP                                     0x200002b0   Section      512  startup_stm32f40xx.o(HEAP)
    STACK                                    0x200004b0   Section     1024  startup_stm32f40xx.o(STACK)

    Global Symbols

    Symbol Name                              Value     Ov Type        Size  Object(Section)

    BuildAttributes$$THM_ISAv4$E$P$D$K$B$S$7EM$VFPi3$EXTD16$VFPS$VFMA$PE$A:L22UL41UL21$X:L11$S22US41US21$IEEE1$IW$USESV6$~STKCKD$USESV7$~SHL$OTIME$ROPI$IEEEX$EBA8$MICROLIB$REQ8$PRES8$EABIv2 0x00000000   Number         0  anon$$obj.o ABSOLUTE
    __ARM_use_no_argv                        0x00000000   Number         0  main.o ABSOLUTE
    _printf_a                                0x00000000   Number         0  stubs.o ABSOLUTE
    _printf_c                                0x00000000   Number         0  stubs.o ABSOLUTE
    _printf_charcount                        0x00000000   Number         0  stubs.o ABSOLUTE
    _printf_d                                0x00000000   Number         0  stubs.o ABSOLUTE
    _printf_e                                0x00000000   Number         0  stubs.o ABSOLUTE
    _printf_f                                0x00000000   Number         0  stubs.o ABSOLUTE
    _printf_flags                            0x00000000   Number         0  stubs.o ABSOLUTE
    _printf_fp_dec                           0x00000000   Number         0  stubs.o ABSOLUTE
    _printf_fp_hex                           0x00000000   Number         0  stubs.o ABSOLUTE
    _printf_g                                0x00000000   Number         0  stubs.o ABSOLUTE
    _printf_i                                0x00000000   Number         0  stubs.o ABSOLUTE
    _printf_int_dec                          0x00000000   Number         0  stubs.o ABSOLUTE
    _printf_l                                0x00000000   Number         0  stubs.o ABSOLUTE
    _printf_lc                               0x00000000   Number         0  stubs.o ABSOLUTE
    _printf_ll                               0x00000000   Number         0  stubs.o ABSOLUTE
    _printf_lld                              0x00000000   Number         0  stubs.o ABSOLUTE
    _printf_lli                              0x00000000   Number         0  stubs.o ABSOLUTE
    _printf_llo                              0x00000000   Number         0  stubs.o ABSOLUTE
    _printf_llu                              0x00000000   Number         0  stubs.o ABSOLUTE
    _printf_llx                              0x00000000   Number         0  stubs.o ABSOLUTE
    _printf_longlong_dec                     0x00000000   Number         0  stubs.o ABSOLUTE
    _printf_longlong_hex                     0x00000000   Number         0  stubs.o ABSOLUTE
    _printf_longlong_oct                     0x00000000   Number         0  stubs.o ABSOLUTE
    _printf_ls                               0x00000000   Number         0  stubs.o ABSOLUTE
    _printf_mbtowc                           0x00000000   Number         0  stubs.o ABSOLUTE
    _printf_n                                0x00000000   Number         0  stubs.o ABSOLUTE
    _printf_o                                0x00000000   Number         0  stubs.o ABSOLUTE
    _printf_p                                0x00000000   Number         0  stubs.o ABSOLUTE
    _printf_percent                          0x00000000   Number         0  stubs.o ABSOLUTE
    _printf_pre_padding                      0x00000000   Number         0  stubs.o ABSOLUTE
    _printf_return_value                     0x00000000   Number         0  stubs.o ABSOLUTE
    _printf_s                                0x00000000   Number         0  stubs.o ABSOLUTE
    _printf_sizespec                         0x00000000   Number         0  stubs.o ABSOLUTE
    _printf_str                              0x00000000   Number         0  stubs.o ABSOLUTE
    _printf_truncate_signed                  0x00000000   Number         0  stubs.o ABSOLUTE
    _printf_truncate_unsigned                0x00000000   Number         0  stubs.o ABSOLUTE
    _printf_u                                0x00000000   Number         0  stubs.o ABSOLUTE
    _printf_wc                               0x00000000   Number         0  stubs.o ABSOLUTE
    _printf_wctomb                           0x00000000   Number         0  stubs.o ABSOLUTE
    _printf_widthprec                        0x00000000   Number         0  stubs.o ABSOLUTE
    _printf_x                                0x00000000   Number         0  stubs.o ABSOLUTE
    __cpp_initialize__aeabi_                  - Undefined Weak Reference
    __cxa_finalize                            - Undefined Weak Reference
    _clock_init                               - Undefined Weak Reference
    _microlib_exit                            - Undefined Weak Reference
    __Vectors_Size                           0x00000188   Number         0  startup_stm32f40xx.o ABSOLUTE
    __Vectors                                0x08000000   Data           4  startup_stm32f40xx.o(RESET)
    __Vectors_End                            0x08000188   Data           0  startup_stm32f40xx.o(RESET)
    __main                                   0x08000189   Thumb Code     0  entry.o(.ARM.Collect$$$$00000000)
    _main_stk                                0x08000189   Thumb Code     0  entry2.o(.ARM.Collect$$$$00000001)
    _main_scatterload                        0x0800018d   Thumb Code     0  entry5.o(.ARM.Collect$$$$00000004)
    __main_after_scatterload                 0x08000191   Thumb Code     0  entry5.o(.ARM.Collect$$$$00000004)
    _main_clock                              0x08000191   Thumb Code     0  entry7b.o(.ARM.Collect$$$$00000008)
    _main_cpp_init                           0x08000191   Thumb Code     0  entry8b.o(.ARM.Collect$$$$0000000A)
    _main_init                               0x08000191   Thumb Code     0  entry9a.o(.ARM.Collect$$$$0000000B)
    __rt_final_cpp                           0x08000199   Thumb Code     0  entry10a.o(.ARM.Collect$$$$0000000D)
    __rt_final_exit                          0x08000199   Thumb Code     0  entry11a.o(.ARM.Collect$$$$0000000F)
    Reset_Handler                            0x0800019d   Thumb Code     8  startup_stm32f40xx.o(.text)
    NMI_Handler                              0x080001a5   Thumb Code     2  startup_stm32f40xx.o(.text)
    HardFault_Handler                        0x080001a7   Thumb Code     2  startup_stm32f40xx.o(.text)
    MemManage_Handler                        0x080001a9   Thumb Code     2  startup_stm32f40xx.o(.text)
    BusFault_Handler                         0x080001ab   Thumb Code     2  startup_stm32f40xx.o(.text)
    UsageFault_Handler                       0x080001ad   Thumb Code     2  startup_stm32f40xx.o(.text)
    SVC_Handler                              0x080001af   Thumb Code     2  startup_stm32f40xx.o(.text)
    DebugMon_Handler                         0x080001b1   Thumb Code     2  startup_stm32f40xx.o(.text)
    PendSV_Handler                           0x080001b3   Thumb Code     2  startup_stm32f40xx.o(.text)
    SysTick_Handler                          0x080001b5   Thumb Code     2  startup_stm32f40xx.o(.text)
    ADC_IRQHandler                           0x080001b7   Thumb Code     0  startup_stm32f40xx.o(.text)
    CAN1_RX1_IRQHandler                      0x080001b7   Thumb Code     0  startup_stm32f40xx.o(.text)
    CAN1_SCE_IRQHandler                      0x080001b7   Thumb Code     0  startup_stm32f40xx.o(.text)
    CAN1_TX_IRQHandler                       0x080001b7   Thumb Code     0  startup_stm32f40xx.o(.text)
    CAN2_RX1_IRQHandler                      0x080001b7   Thumb Code     0  startup_stm32f40xx.o(.text)
    CAN2_SCE_IRQHandler                      0x080001b7   Thumb Code     0  startup_stm32f40xx.o(.text)
    CAN2_TX_IRQHandler                       0x080001b7   Thumb Code     0  startup_stm32f40xx.o(.text)
    CRYP_IRQHandler                          0x080001b7   Thumb Code     0  startup_stm32f40xx.o(.text)
    DCMI_IRQHandler                          0x080001b7   Thumb Code     0  startup_stm32f40xx.o(.text)
    DMA1_Stream0_IRQHandler                  0x080001b7   Thumb Code     0  startup_stm32f40xx.o(.text)
    DMA1_Stream1_IRQHandler                  0x080001b7   Thumb Code     0  startup_stm32f40xx.o(.text)
    DMA1_Stream2_IRQHandler                  0x080001b7   Thumb Code     0  startup_stm32f40xx.o(.text)
    DMA1_Stream3_IRQHandler                  0x080001b7   Thumb Code     0  startup_stm32f40xx.o(.text)
    DMA1_Stream4_IRQHandler                  0x080001b7   Thumb Code     0  startup_stm32f40xx.o(.text)
    DMA1_Stream5_IRQHandler                  0x080001b7   Thumb Code     0  startup_stm32f40xx.o(.text)
    DMA1_Stream6_IRQHandler                  0x080001b7   Thumb Code     0  startup_stm32f40xx.o(.text)
    DMA1_Stream7_IRQHandler                  0x080001b7   Thumb Code     0  startup_stm32f40xx.o(.text)
    DMA2_Stream0_IRQHandler                  0x080001b7   Thumb Code     0  startup_stm32f40xx.o(.text)
    DMA2_Stream1_IRQHandler                  0x080001b7   Thumb Code     0  startup_stm32f40xx.o(.text)
    DMA2_Stream2_IRQHandler                  0x080001b7   Thumb Code     0  startup_stm32f40xx.o(.text)
    DMA2_Stream3_IRQHandler                  0x080001b7   Thumb Code     0  startup_stm32f40xx.o(.text)
    DMA2_Stream4_IRQHandler                  0x080001b7   Thumb Code     0  startup_stm32f40xx.o(.text)
    DMA2_Stream5_IRQHandler                  0x080001b7   Thumb Code     0  startup_stm32f40xx.o(.text)
    DMA2_Stream6_IRQHandler                  0x080001b7   Thumb Code     0  startup_stm32f40xx.o(.text)
    DMA2_Stream7_IRQHandler                  0x080001b7   Thumb Code     0  startup_stm32f40xx.o(.text)
    ETH_IRQHandler                           0x080001b7   Thumb Code     0  startup_stm32f40xx.o(.text)
    ETH_WKUP_IRQHandler                      0x080001b7   Thumb Code     0  startup_stm32f40xx.o(.text)
    EXTI0_IRQHandler                         0x080001b7   Thumb Code     0  startup_stm32f40xx.o(.text)
    EXTI15_10_IRQHandler                     0x080001b7   Thumb Code     0  startup_stm32f40xx.o(.text)
    EXTI2_IRQHandler                         0x080001b7   Thumb Code     0  startup_stm32f40xx.o(.text)
    EXTI3_IRQHandler                         0x080001b7   Thumb Code     0  startup_stm32f40xx.o(.text)
    EXTI4_IRQHandler                         0x080001b7   Thumb Code     0  startup_stm32f40xx.o(.text)
    EXTI9_5_IRQHandler                       0x080001b7   Thumb Code     0  startup_stm32f40xx.o(.text)
    FLASH_IRQHandler                         0x080001b7   Thumb Code     0  startup_stm32f40xx.o(.text)
    FPU_IRQHandler                           0x080001b7   Thumb Code     0  startup_stm32f40xx.o(.text)
    FSMC_IRQHandler                          0x080001b7   Thumb Code     0  startup_stm32f40xx.o(.text)
    HASH_RNG_IRQHandler                      0x080001b7   Thumb Code     0  startup_stm32f40xx.o(.text)
    I2C1_ER_IRQHandler                       0x080001b7   Thumb Code     0  startup_stm32f40xx.o(.text)
    I2C1_EV_IRQHandler                       0x080001b7   Thumb Code     0  startup_stm32f40xx.o(.text)
    I2C2_ER_IRQHandler                       0x080001b7   Thumb Code     0  startup_stm32f40xx.o(.text)
    I2C2_EV_IRQHandler                       0x080001b7   Thumb Code     0  startup_stm32f40xx.o(.text)
    I2C3_ER_IRQHandler                       0x080001b7   Thumb Code     0  startup_stm32f40xx.o(.text)
    I2C3_EV_IRQHandler                       0x080001b7   Thumb Code     0  startup_stm32f40xx.o(.text)
    OTG_FS_IRQHandler                        0x080001b7   Thumb Code     0  startup_stm32f40xx.o(.text)
    OTG_FS_WKUP_IRQHandler                   0x080001b7   Thumb Code     0  startup_stm32f40xx.o(.text)
    OTG_HS_EP1_IN_IRQHandler                 0x080001b7   Thumb Code     0  startup_stm32f40xx.o(.text)
    OTG_HS_EP1_OUT_IRQHandler                0x080001b7   Thumb Code     0  startup_stm32f40xx.o(.text)
    OTG_HS_IRQHandler                        0x080001b7   Thumb Code     0  startup_stm32f40xx.o(.text)
    OTG_HS_WKUP_IRQHandler                   0x080001b7   Thumb Code     0  startup_stm32f40xx.o(.text)
    PVD_IRQHandler                           0x080001b7   Thumb Code     0  startup_stm32f40xx.o(.text)
    RCC_IRQHandler                           0x080001b7   Thumb Code     0  startup_stm32f40xx.o(.text)
    RTC_Alarm_IRQHandler                     0x080001b7   Thumb Code     0  startup_stm32f40xx.o(.text)
    RTC_WKUP_IRQHandler                      0x080001b7   Thumb Code     0  startup_stm32f40xx.o(.text)
    SDIO_IRQHandler                          0x080001b7   Thumb Code     0  startup_stm32f40xx.o(.text)
    SPI1_IRQHandler                          0x080001b7   Thumb Code     0  startup_stm32f40xx.o(.text)
    SPI2_IRQHandler                          0x080001b7   Thumb Code     0  startup_stm32f40xx.o(.text)
    SPI3_IRQHandler                          0x080001b7   Thumb Code     0  startup_stm32f40xx.o(.text)
    TAMP_STAMP_IRQHandler                    0x080001b7   Thumb Code     0  startup_stm32f40xx.o(.text)
    TIM1_BRK_TIM9_IRQHandler                 0x080001b7   Thumb Code     0  startup_stm32f40xx.o(.text)
    TIM1_CC_IRQHandler                       0x080001b7   Thumb Code     0  startup_stm32f40xx.o(.text)
    TIM1_TRG_COM_TIM11_IRQHandler            0x080001b7   Thumb Code     0  startup_stm32f40xx.o(.text)
    TIM1_UP_TIM10_IRQHandler                 0x080001b7   Thumb Code     0  startup_stm32f40xx.o(.text)
    TIM2_IRQHandler                          0x080001b7   Thumb Code     0  startup_stm32f40xx.o(.text)
    TIM3_IRQHandler                          0x080001b7   Thumb Code     0  startup_stm32f40xx.o(.text)
    TIM4_IRQHandler                          0x080001b7   Thumb Code     0  startup_stm32f40xx.o(.text)
    TIM6_DAC_IRQHandler                      0x080001b7   Thumb Code     0  startup_stm32f40xx.o(.text)
    TIM7_IRQHandler                          0x080001b7   Thumb Code     0  startup_stm32f40xx.o(.text)
    TIM8_BRK_TIM12_IRQHandler                0x080001b7   Thumb Code     0  startup_stm32f40xx.o(.text)
    TIM8_CC_IRQHandler                       0x080001b7   Thumb Code     0  startup_stm32f40xx.o(.text)
    TIM8_TRG_COM_TIM14_IRQHandler            0x080001b7   Thumb Code     0  startup_stm32f40xx.o(.text)
    TIM8_UP_TIM13_IRQHandler                 0x080001b7   Thumb Code     0  startup_stm32f40xx.o(.text)
    UART4_IRQHandler                         0x080001b7   Thumb Code     0  startup_stm32f40xx.o(.text)
    UART5_IRQHandler                         0x080001b7   Thumb Code     0  startup_stm32f40xx.o(.text)
    USART1_IRQHandler                        0x080001b7   Thumb Code     0  startup_stm32f40xx.o(.text)
    USART2_IRQHandler                        0x080001b7   Thumb Code     0  startup_stm32f40xx.o(.text)
    USART3_IRQHandler                        0x080001b7   Thumb Code     0  startup_stm32f40xx.o(.text)
    USART6_IRQHandler                        0x080001b7   Thumb Code     0  startup_stm32f40xx.o(.text)
    WWDG_IRQHandler                          0x080001b7   Thumb Code     0  startup_stm32f40xx.o(.text)
    __aeabi_memcpy                           0x080001c1   Thumb Code    36  memcpya.o(.text)
    __aeabi_memcpy4                          0x080001c1   Thumb Code     0  memcpya.o(.text)
    __aeabi_memcpy8                          0x080001c1   Thumb Code     0  memcpya.o(.text)
    __aeabi_dadd                             0x080001e5   Thumb Code   322  dadd.o(.text)
    __aeabi_dsub                             0x08000327   Thumb Code     6  dadd.o(.text)
    __aeabi_drsub                            0x0800032d   Thumb Code     6  dadd.o(.text)
    __aeabi_dmul                             0x08000333   Thumb Code   228  dmul.o(.text)
    __aeabi_ddiv                             0x08000417   Thumb Code   222  ddiv.o(.text)
    __aeabi_i2d                              0x080004f5   Thumb Code    34  dflti.o(.text)
    __aeabi_ui2d                             0x08000517   Thumb Code    26  dfltui.o(.text)
    __aeabi_d2iz                             0x08000531   Thumb Code    62  dfixi.o(.text)
    __aeabi_d2uiz                            0x0800056f   Thumb Code    50  dfixui.o(.text)
    __aeabi_cdcmpeq                          0x080005a1   Thumb Code     0  cdcmple.o(.text)
    __aeabi_cdcmple                          0x080005a1   Thumb Code    48  cdcmple.o(.text)
    __aeabi_cdrcmple                         0x080005d1   Thumb Code    48  cdrcmple.o(.text)
    __aeabi_d2f                              0x08000601   Thumb Code    56  d2f.o(.text)
    __aeabi_llsl                             0x08000639   Thumb Code    30  llshl.o(.text)
    _ll_shift_l                              0x08000639   Thumb Code     0  llshl.o(.text)
    __aeabi_llsr                             0x08000657   Thumb Code    32  llushr.o(.text)
    _ll_ushift_r                             0x08000657   Thumb Code     0  llushr.o(.text)
    __aeabi_lasr                             0x08000677   Thumb Code    36  llsshr.o(.text)
    _ll_sshift_r                             0x08000677   Thumb Code     0  llsshr.o(.text)
    __I$use$fp                               0x0800069b   Thumb Code     0  iusefp.o(.text)
    _float_round                             0x0800069b   Thumb Code    18  fepilogue.o(.text)
    _float_epilogue                          0x080006ad   Thumb Code    92  fepilogue.o(.text)
    _double_round                            0x08000709   Thumb Code    30  depilogue.o(.text)
    _double_epilogue                         0x08000727   Thumb Code   156  depilogue.o(.text)
    __ARM_scalbn                             0x080007c3   Thumb Code    46  dscalb.o(.text)
    scalbn                                   0x080007c3   Thumb Code     0  dscalb.o(.text)
    __scatterload                            0x080007f1   Thumb Code    28  init.o(.text)
    __scatterload_rt2                        0x080007f1   Thumb Code     0  init.o(.text)
    _dsqrt                                   0x08000815   Thumb Code   162  dsqrt.o(.text)
    __decompress                             0x080008b7   Thumb Code     0  __dclz77c.o(.text)
    __decompress2                            0x080008b7   Thumb Code    94  __dclz77c.o(.text)
    ADC_Cmd                                  0x08000915   Thumb Code    24  stm32f4xx_adc.o(i.ADC_Cmd)
    ADC_CommonInit                           0x0800092d   Thumb Code    30  stm32f4xx_adc.o(i.ADC_CommonInit)
    ADC_DMACmd                               0x08000955   Thumb Code    24  stm32f4xx_adc.o(i.ADC_DMACmd)
    ADC_DMARequestAfterLastTransferCmd       0x0800096d   Thumb Code    24  stm32f4xx_adc.o(i.ADC_DMARequestAfterLastTransferCmd)
    ADC_INIT                                 0x080009ed   Thumb Code    14  adc.o(i.ADC_INIT)
    ADC_Init                                 0x080009fd   Thumb Code    66  stm32f4xx_adc.o(i.ADC_Init)
    ADC_RegularChannelConfig                 0x08000b2d   Thumb Code   116  stm32f4xx_adc.o(i.ADC_RegularChannelConfig)
    ADC_SoftwareStartConv                    0x08000ba1   Thumb Code    10  stm32f4xx_adc.o(i.ADC_SoftwareStartConv)
    ADC_StructInit                           0x08000bab   Thumb Code    20  stm32f4xx_adc.o(i.ADC_StructInit)
    ASMS_GPIO_Config                         0x08000bc1   Thumb Code    40  asms.o(i.ASMS_GPIO_Config)
    ASSI_GPIO_Config                         0x08000bed   Thumb Code    72  assi.o(i.ASSI_GPIO_Config)
    BCKP_IO_GPIO_Config                      0x08000c41   Thumb Code    98  bckp_io.o(i.BCKP_IO_GPIO_Config)
    BEEP_GPIO_Config                         0x08000cb1   Thumb Code    56  beep.o(i.BEEP_GPIO_Config)
    BRAKE_LED_GPIO_Config                    0x08000ced   Thumb Code    46  brake_led.o(i.BRAKE_LED_GPIO_Config)
    CAN1_Config                              0x08000d21   Thumb Code   282  can.o(i.CAN1_Config)
    CAN1_Ctrl_Send                           0x08000e45   Thumb Code   214  stm32f4xx_it.o(i.CAN1_Ctrl_Send)
    CAN1_RX0_IRQHandler                      0x08000f39   Thumb Code   352  stm32f4xx_it.o(i.CAN1_RX0_IRQHandler)
    CAN2_Config                              0x080010d9   Thumb Code   288  can.o(i.CAN2_Config)
    CAN2_Ctrl_Send                           0x08001205   Thumb Code    60  stm32f4xx_it.o(i.CAN2_Ctrl_Send)
    CAN2_RX0_IRQHandler                      0x08001245   Thumb Code   266  stm32f4xx_it.o(i.CAN2_RX0_IRQHandler)
    CAN_DeInit                               0x08001379   Thumb Code    52  stm32f4xx_can.o(i.CAN_DeInit)
    CAN_FilterInit                           0x080013b1   Thumb Code   202  stm32f4xx_can.o(i.CAN_FilterInit)
    CAN_ITConfig                             0x08001485   Thumb Code    20  stm32f4xx_can.o(i.CAN_ITConfig)
    CAN_Init                                 0x08001499   Thumb Code   260  stm32f4xx_can.o(i.CAN_Init)
    CAN_Receive                              0x0800159d   Thumb Code   130  stm32f4xx_can.o(i.CAN_Receive)
    CAN_StructInit                           0x0800161f   Thumb Code    32  stm32f4xx_can.o(i.CAN_StructInit)
    CAN_Transmit                             0x0800163f   Thumb Code   182  stm32f4xx_can.o(i.CAN_Transmit)
    CAN_TransmitStatus                       0x080016f5   Thumb Code   116  stm32f4xx_can.o(i.CAN_TransmitStatus)
    DMA_Cmd                                  0x0800177d   Thumb Code    24  stm32f4xx_dma.o(i.DMA_Cmd)
    DMA_Init                                 0x08001795   Thumb Code    80  stm32f4xx_dma.o(i.DMA_Init)
    Debug_USART_Config                       0x080017e9   Thumb Code   142  debug_usart.o(i.Debug_USART_Config)
    EXTI1_IRQHandler                         0x08001881   Thumb Code    56  stm32f4xx_it.o(i.EXTI1_IRQHandler)
    EXTI_ClearITPendingBit                   0x080018c1   Thumb Code     6  stm32f4xx_exti.o(i.EXTI_ClearITPendingBit)
    EXTI_GetITStatus                         0x080018cd   Thumb Code    16  stm32f4xx_exti.o(i.EXTI_GetITStatus)
    EXTI_Init                                0x080018e1   Thumb Code   110  stm32f4xx_exti.o(i.EXTI_Init)
    GPIO_Init                                0x08001955   Thumb Code   124  stm32f4xx_gpio.o(i.GPIO_Init)
    GPIO_PinAFConfig                         0x080019d1   Thumb Code    32  stm32f4xx_gpio.o(i.GPIO_PinAFConfig)
    GPIO_ReadInputDataBit                    0x080019f1   Thumb Code    14  stm32f4xx_gpio.o(i.GPIO_ReadInputDataBit)
    GPIO_ResetBits                           0x080019ff   Thumb Code     4  stm32f4xx_gpio.o(i.GPIO_ResetBits)
    GPIO_SetBits                             0x08001a03   Thumb Code     4  stm32f4xx_gpio.o(i.GPIO_SetBits)
    InitQueue                                0x08001a07   Thumb Code    28  msg_queue.o(i.InitQueue)
    Init_CanMsg_Queue                        0x08001a25   Thumb Code    28  msg_queue.o(i.Init_CanMsg_Queue)
    LED_GPIO_Config                          0x08001a45   Thumb Code    70  led.o(i.LED_GPIO_Config)
    NVIC_Configure                           0x08001a95   Thumb Code    98  nvic.o(i.NVIC_Configure)
    NVIC_Init                                0x08001af9   Thumb Code    98  misc.o(i.NVIC_Init)
    NVIC_PriorityGroupConfig                 0x08001b61   Thumb Code    10  misc.o(i.NVIC_PriorityGroupConfig)
    PWR_BackupAccessCmd                      0x08001b75   Thumb Code     6  stm32f4xx_pwr.o(i.PWR_BackupAccessCmd)
    RCC_AHB1PeriphClockCmd                   0x08001b81   Thumb Code    22  stm32f4xx_rcc.o(i.RCC_AHB1PeriphClockCmd)
    RCC_APB1PeriphClockCmd                   0x08001b9d   Thumb Code    22  stm32f4xx_rcc.o(i.RCC_APB1PeriphClockCmd)
    RCC_APB1PeriphResetCmd                   0x08001bb9   Thumb Code    22  stm32f4xx_rcc.o(i.RCC_APB1PeriphResetCmd)
    RCC_APB2PeriphClockCmd                   0x08001bd5   Thumb Code    22  stm32f4xx_rcc.o(i.RCC_APB2PeriphClockCmd)
    RCC_GetClocksFreq                        0x08001bf1   Thumb Code   148  stm32f4xx_rcc.o(i.RCC_GetClocksFreq)
    RCC_GetFlagStatus                        0x08001c95   Thumb Code    50  stm32f4xx_rcc.o(i.RCC_GetFlagStatus)
    RCC_LSEConfig                            0x08001ccd   Thumb Code    28  stm32f4xx_rcc.o(i.RCC_LSEConfig)
    RCC_RTCCLKCmd                            0x08001ced   Thumb Code     6  stm32f4xx_rcc.o(i.RCC_RTCCLKCmd)
    RCC_RTCCLKConfig                         0x08001cf9   Thumb Code    40  stm32f4xx_rcc.o(i.RCC_RTCCLKConfig)
    ROS_Ctrl_Send                            0x08001d29   Thumb Code    60  stm32f4xx_it.o(i.ROS_Ctrl_Send)
    RTC_CLK_Config                           0x08001d93   Thumb Code    82  rtc.o(i.RTC_CLK_Config)
    RTC_EnterInitMode                        0x08001de5   Thumb Code    62  stm32f4xx_rtc.o(i.RTC_EnterInitMode)
    RTC_ExitInitMode                         0x08001e29   Thumb Code    12  stm32f4xx_rtc.o(i.RTC_ExitInitMode)
    RTC_GetDate                              0x08001e39   Thumb Code    64  stm32f4xx_rtc.o(i.RTC_GetDate)
    RTC_GetTime                              0x08001e81   Thumb Code    68  stm32f4xx_rtc.o(i.RTC_GetTime)
    RTC_Init                                 0x08001ecd   Thumb Code    74  stm32f4xx_rtc.o(i.RTC_Init)
    RTC_SetDate                              0x08001f1d   Thumb Code   156  stm32f4xx_rtc.o(i.RTC_SetDate)
    RTC_SetTime                              0x08001fc1   Thumb Code   160  stm32f4xx_rtc.o(i.RTC_SetTime)
    RTC_TimeAndDate_Set                      0x08002069   Thumb Code    84  rtc.o(i.RTC_TimeAndDate_Set)
    RTC_WaitForSynchro                       0x080020bd   Thumb Code    72  stm32f4xx_rtc.o(i.RTC_WaitForSynchro)
    RTC_WriteBackupRegister                  0x08002109   Thumb Code    16  stm32f4xx_rtc.o(i.RTC_WriteBackupRegister)
    SC_GPIO_Config                           0x0800211d   Thumb Code    42  circult.o(i.SC_GPIO_Config)
    SYSCFG_EXTILineConfig                    0x0800214d   Thumb Code    38  stm32f4xx_syscfg.o(i.SYSCFG_EXTILineConfig)
    SystemInit                               0x08002231   Thumb Code    74  system_stm32f4xx.o(i.SystemInit)
    TIM5_IRQHandler                          0x0800228d   Thumb Code  5560  stm32f4xx_it.o(i.TIM5_IRQHandler)
    TIM_ClearITPendingBit                    0x08003859   Thumb Code     6  stm32f4xx_tim.o(i.TIM_ClearITPendingBit)
    TIM_Cmd                                  0x0800385f   Thumb Code    24  stm32f4xx_tim.o(i.TIM_Cmd)
    TIM_GetITStatus                          0x08003877   Thumb Code    24  stm32f4xx_tim.o(i.TIM_GetITStatus)
    TIM_ITConfig                             0x0800388f   Thumb Code    20  stm32f4xx_tim.o(i.TIM_ITConfig)
    TIM_TimeBaseInit                         0x080038a5   Thumb Code    96  stm32f4xx_tim.o(i.TIM_TimeBaseInit)
    TIM_Timer_Init                           0x08003921   Thumb Code    60  timer.o(i.TIM_Timer_Init)
    USART_Cmd                                0x08003961   Thumb Code    24  stm32f4xx_usart.o(i.USART_Cmd)
    USART_Init                               0x08003979   Thumb Code   180  stm32f4xx_usart.o(i.USART_Init)
    USART_SendData                           0x08003a35   Thumb Code     8  stm32f4xx_usart.o(i.USART_SendData)
    __ARM_fpclassify                         0x08003a3d   Thumb Code    48  fpclassify.o(i.__ARM_fpclassify)
    __hardfp_pow                             0x08003a71   Thumb Code  3072  pow.o(i.__hardfp_pow)
    __kernel_poly                            0x080046c1   Thumb Code   248  poly.o(i.__kernel_poly)
    __mathlib_dbl_divzero                    0x080047b9   Thumb Code    28  dunder.o(i.__mathlib_dbl_divzero)
    __mathlib_dbl_infnan2                    0x080047e9   Thumb Code    20  dunder.o(i.__mathlib_dbl_infnan2)
    __mathlib_dbl_invalid                    0x08004801   Thumb Code    24  dunder.o(i.__mathlib_dbl_invalid)
    __mathlib_dbl_overflow                   0x08004821   Thumb Code    24  dunder.o(i.__mathlib_dbl_overflow)
    __mathlib_dbl_underflow                  0x08004841   Thumb Code    24  dunder.o(i.__mathlib_dbl_underflow)
    __scatterload_copy                       0x08004861   Thumb Code    14  handlers.o(i.__scatterload_copy)
    __scatterload_null                       0x0800486f   Thumb Code     2  handlers.o(i.__scatterload_null)
    __scatterload_zeroinit                   0x08004871   Thumb Code    14  handlers.o(i.__scatterload_zeroinit)
    __set_errno                              0x08004881   Thumb Code     6  errno.o(i.__set_errno)
    fabs                                     0x0800488d   Thumb Code    24  fabs.o(i.fabs)
    isBrake                                  0x080048a5   Thumb Code    56  stm32f4xx_it.o(i.isBrake)
    main                                     0x080048e5   Thumb Code   114  main.o(i.main)
    malloc                                   0x08004965   Thumb Code    92  malloc.o(i.malloc)
    sqrt                                     0x080049d1   Thumb Code   110  sqrt.o(i.sqrt)
    __mathlib_zero                           0x08004ac8   Data           8  qnan.o(.constdata)
    Region$$Table$$Base                      0x08004ad0   Number         0  anon$$obj.o(Region$$Table)
    Region$$Table$$Limit                     0x08004af0   Number         0  anon$$obj.o(Region$$Table)
    ToDriveFlag                              0x20000010   Data           1  stm32f4xx_it.o(.data)
    RES_Flag                                 0x20000011   Data           1  stm32f4xx_it.o(.data)
    EBS_Flag                                 0x20000012   Data           1  stm32f4xx_it.o(.data)
    E_Switch_Flag                            0x20000013   Data           1  stm32f4xx_it.o(.data)
    RES_LOSE_Flag                            0x20000014   Data           1  stm32f4xx_it.o(.data)
    ROS_LOSE_Flag                            0x20000015   Data           1  stm32f4xx_it.o(.data)
    Motor_LOSE_Flag                          0x20000016   Data           1  stm32f4xx_it.o(.data)
    ESC_LOSE_Flag                            0x20000017   Data           1  stm32f4xx_it.o(.data)
    STEERING_LOSE_Flag                       0x20000018   Data           1  stm32f4xx_it.o(.data)
    Steer_Flag                               0x20000019   Data           1  stm32f4xx_it.o(.data)
    isSteer_Enable                           0x2000001a   Data           1  stm32f4xx_it.o(.data)
    EBS_LOSE_Flag                            0x2000001b   Data           1  stm32f4xx_it.o(.data)
    ESC_Flag                                 0x2000001c   Data           1  stm32f4xx_it.o(.data)
    ADC_Flag                                 0x2000001d   Data           1  stm32f4xx_it.o(.data)
    Sudden_Flag                              0x2000001e   Data           1  stm32f4xx_it.o(.data)
    ACC_ErrorFlag                            0x2000001f   Data           1  stm32f4xx_it.o(.data)
    Stop_Flag                                0x20000020   Data           1  stm32f4xx_it.o(.data)
    Statu_Flag                               0x20000021   Data           1  stm32f4xx_it.o(.data)
    Beep_ros                                 0x20000022   Data           1  stm32f4xx_it.o(.data)
    Brake_Flag                               0x20000023   Data           1  stm32f4xx_it.o(.data)
    Match_Mode                               0x20000024   Data           1  stm32f4xx_it.o(.data)
    Error_Flag                               0x20000025   Data           1  stm32f4xx_it.o(.data)
    ROS_FastBrake                            0x20000026   Data           1  stm32f4xx_it.o(.data)
    isTS_ON                                  0x20000027   Data           1  stm32f4xx_it.o(.data)
    isFinshed                                0x20000028   Data           1  stm32f4xx_it.o(.data)
    tmp                                      0x20000029   Data           1  stm32f4xx_it.o(.data)
    oilPressure_enough                       0x2000002a   Data           1  stm32f4xx_it.o(.data)
    oilPressure_bl                           0x2000002b   Data           1  stm32f4xx_it.o(.data)
    oilPressure_br                           0x2000002c   Data           1  stm32f4xx_it.o(.data)
    oilPressure_fl                           0x2000002d   Data           1  stm32f4xx_it.o(.data)
    oilPressure_fr                           0x2000002e   Data           1  stm32f4xx_it.o(.data)
    gasPressure_enough                       0x2000002f   Data           1  stm32f4xx_it.o(.data)
    SC_breaker                               0x20000030   Data           1  stm32f4xx_it.o(.data)
    temp_pump                                0x20000031   Data           1  stm32f4xx_it.o(.data)
    Bms_State                                0x20000032   Data           1  stm32f4xx_it.o(.data)
    is_SteerEnable                           0x20000033   Data           1  stm32f4xx_it.o(.data)
    time1                                    0x20000034   Data           1  stm32f4xx_it.o(.data)
    motor_num                                0x20000035   Data           1  stm32f4xx_it.o(.data)
    Beep_man                                 0x20000036   Data           2  stm32f4xx_it.o(.data)
    Beep_ros_count                           0x20000038   Data           2  stm32f4xx_it.o(.data)
    r                                        0x2000003a   Data           2  stm32f4xx_it.o(.data)
    HV_voltage                               0x2000003c   Data           2  stm32f4xx_it.o(.data)
    DCC_Value                                0x2000003e   Data           2  stm32f4xx_it.o(.data)
    ACC1_Value                               0x20000040   Data           2  stm32f4xx_it.o(.data)
    ACC2_Value                               0x20000042   Data           2  stm32f4xx_it.o(.data)
    ACC1_meanValue                           0x20000044   Data           2  stm32f4xx_it.o(.data)
    ACC2_meanValue                           0x20000046   Data           2  stm32f4xx_it.o(.data)
    motor_ctrl_V                             0x20000048   Data           2  stm32f4xx_it.o(.data)
    time0                                    0x2000004c   Data           4  stm32f4xx_it.o(.data)
    steering_angle                           0x20000050   Data           4  stm32f4xx_it.o(.data)
    RTC_TimeStructure                        0x20000054   Data           4  stm32f4xx_it.o(.data)
    RTC_DateStructure                        0x20000058   Data           4  stm32f4xx_it.o(.data)
    encoder_flv                              0x20000060   Data           8  stm32f4xx_it.o(.data)
    encoder_frv                              0x20000068   Data           8  stm32f4xx_it.o(.data)
    ADC_ConvertedValue                       0x20000070   Data           6  adc.o(.data)
    CAN2_RxMessage                           0x20000078   Data          20  can.o(.data)
    HRT_Ctrl_1                               0x2000008c   Data          20  can.o(.data)
    Steering_Rx_Message                      0x200000a0   Data          20  can.o(.data)
    Steering_Tx_Message0                     0x200000b4   Data          20  can.o(.data)
    Steering_Tx_Message                      0x200000c8   Data          20  can.o(.data)
    ROS_TxMsg                                0x200000dc   Data          20  can.o(.data)
    AMK_SETPOINT_RF                          0x200000f0   Data          20  can.o(.data)
    AMK_SETPOINT_LF                          0x20000104   Data          20  can.o(.data)
    RTC_Msg                                  0x20000118   Data          20  can.o(.data)
    AMK_RF_V1                                0x2000012c   Data          20  can.o(.data)
    AMK_RF_V2                                0x20000140   Data          20  can.o(.data)
    AMK_LF_V1                                0x20000154   Data          20  can.o(.data)
    AMK_LF_V2                                0x20000168   Data          20  can.o(.data)
    AMK_RB_V1                                0x2000017c   Data          20  can.o(.data)
    AMK_RB_V2                                0x20000190   Data          20  can.o(.data)
    AMK_LB_V1                                0x200001a4   Data          20  can.o(.data)
    AMK_LB_V2                                0x200001b8   Data          20  can.o(.data)
    CAN1_RxMessage                           0x200001cc   Data          20  can.o(.data)
    Can1Msg_Queue                            0x200001e0   Data           8  msg_queue.o(.data)
    Can2Msg_Queue                            0x200001e8   Data           8  msg_queue.o(.data)
    __microlib_freelist                      0x200001f0   Data           4  mvars.o(.data)
    __microlib_freelist_initialised          0x200001f4   Data           4  mvars.o(.data)
    motor_ctrl_v                             0x200001fc   Data          40  stm32f4xx_it.o(.bss)
    ADC_ValueLocal                           0x20000224   Data          30  stm32f4xx_it.o(.bss)
    Amk_actualVel_rf_1                       0x20000242   Data          10  stm32f4xx_it.o(.bss)
    Amk_actualVel_lf_1                       0x2000024c   Data          10  stm32f4xx_it.o(.bss)
    Amk_actualVel_rb_1                       0x20000256   Data          10  stm32f4xx_it.o(.bss)
    Amk_actualVel_lb_1                       0x20000260   Data          10  stm32f4xx_it.o(.bss)
    Amk_actualVel_rf_2                       0x2000026c   Data          16  stm32f4xx_it.o(.bss)
    Amk_actualVel_lf_2                       0x2000027c   Data          16  stm32f4xx_it.o(.bss)
    Amk_actualVel_rb_2                       0x2000028c   Data          16  stm32f4xx_it.o(.bss)
    Amk_actualVel_lb_2                       0x2000029c   Data          16  stm32f4xx_it.o(.bss)
    __heap_base                              0x200002b0   Data           0  startup_stm32f40xx.o(HEAP)
    __heap_limit                             0x200004b0   Data           0  startup_stm32f40xx.o(HEAP)
    __initial_sp                             0x200008b0   Data           0  startup_stm32f40xx.o(STACK)



==============================================================================

Memory Map of the image

  Image Entry point : 0x08000189

  Load Region LR_IROM1 (Base: 0x08000000, Size: 0x00004cec, Max: 0x00100000, ABSOLUTE, COMPRESSED[0x00004ba8])

    Execution Region ER_IROM1 (Exec base: 0x08000000, Load base: 0x08000000, Size: 0x00004af0, Max: 0x00100000, ABSOLUTE)

    Exec Addr    Load Addr    Size         Type   Attr      Idx    E Section Name        Object

    0x08000000   0x08000000   0x00000188   Data   RO            3    RESET               startup_stm32f40xx.o
    0x08000188   0x08000188   0x00000000   Code   RO         5444  * .ARM.Collect$$$$00000000  mc_w.l(entry.o)
    0x08000188   0x08000188   0x00000004   Code   RO         5797    .ARM.Collect$$$$00000001  mc_w.l(entry2.o)
    0x0800018c   0x0800018c   0x00000004   Code   RO         5800    .ARM.Collect$$$$00000004  mc_w.l(entry5.o)
    0x08000190   0x08000190   0x00000000   Code   RO         5802    .ARM.Collect$$$$00000008  mc_w.l(entry7b.o)
    0x08000190   0x08000190   0x00000000   Code   RO         5804    .ARM.Collect$$$$0000000A  mc_w.l(entry8b.o)
    0x08000190   0x08000190   0x00000008   Code   RO         5805    .ARM.Collect$$$$0000000B  mc_w.l(entry9a.o)
    0x08000198   0x08000198   0x00000000   Code   RO         5807    .ARM.Collect$$$$0000000D  mc_w.l(entry10a.o)
    0x08000198   0x08000198   0x00000000   Code   RO         5809    .ARM.Collect$$$$0000000F  mc_w.l(entry11a.o)
    0x08000198   0x08000198   0x00000004   Code   RO         5798    .ARM.Collect$$$$00002712  mc_w.l(entry2.o)
    0x0800019c   0x0800019c   0x00000024   Code   RO            4    .text               startup_stm32f40xx.o
    0x080001c0   0x080001c0   0x00000024   Code   RO         5447    .text               mc_w.l(memcpya.o)
    0x080001e4   0x080001e4   0x0000014e   Code   RO         5740    .text               mf_w.l(dadd.o)
    0x08000332   0x08000332   0x000000e4   Code   RO         5742    .text               mf_w.l(dmul.o)
    0x08000416   0x08000416   0x000000de   Code   RO         5744    .text               mf_w.l(ddiv.o)
    0x080004f4   0x080004f4   0x00000022   Code   RO         5746    .text               mf_w.l(dflti.o)
    0x08000516   0x08000516   0x0000001a   Code   RO         5748    .text               mf_w.l(dfltui.o)
    0x08000530   0x08000530   0x0000003e   Code   RO         5750    .text               mf_w.l(dfixi.o)
    0x0800056e   0x0800056e   0x00000032   Code   RO         5752    .text               mf_w.l(dfixui.o)
    0x080005a0   0x080005a0   0x00000030   Code   RO         5754    .text               mf_w.l(cdcmple.o)
    0x080005d0   0x080005d0   0x00000030   Code   RO         5756    .text               mf_w.l(cdrcmple.o)
    0x08000600   0x08000600   0x00000038   Code   RO         5758    .text               mf_w.l(d2f.o)
    0x08000638   0x08000638   0x0000001e   Code   RO         5816    .text               mc_w.l(llshl.o)
    0x08000656   0x08000656   0x00000020   Code   RO         5818    .text               mc_w.l(llushr.o)
    0x08000676   0x08000676   0x00000024   Code   RO         5820    .text               mc_w.l(llsshr.o)
    0x0800069a   0x0800069a   0x00000000   Code   RO         5831    .text               mc_w.l(iusefp.o)
    0x0800069a   0x0800069a   0x0000006e   Code   RO         5832    .text               mf_w.l(fepilogue.o)
    0x08000708   0x08000708   0x000000ba   Code   RO         5834    .text               mf_w.l(depilogue.o)
    0x080007c2   0x080007c2   0x0000002e   Code   RO         5838    .text               mf_w.l(dscalb.o)
    0x080007f0   0x080007f0   0x00000024   Code   RO         5842    .text               mc_w.l(init.o)
    0x08000814   0x08000814   0x000000a2   Code   RO         5844    .text               mf_w.l(dsqrt.o)
    0x080008b6   0x080008b6   0x0000005e   Code   RO         5854    .text               mc_w.l(__dclz77c.o)
    0x08000914   0x08000914   0x00000018   Code   RO          213    i.ADC_Cmd           stm32f4xx_adc.o
    0x0800092c   0x0800092c   0x00000028   Code   RO          214    i.ADC_CommonInit    stm32f4xx_adc.o
    0x08000954   0x08000954   0x00000018   Code   RO          217    i.ADC_DMACmd        stm32f4xx_adc.o
    0x0800096c   0x0800096c   0x00000018   Code   RO          218    i.ADC_DMARequestAfterLastTransferCmd  stm32f4xx_adc.o
    0x08000984   0x08000984   0x00000068   Code   RO         4954    i.ADC_GPIO_Config   adc.o
    0x080009ec   0x080009ec   0x0000000e   Code   RO         4955    i.ADC_INIT          adc.o
    0x080009fa   0x080009fa   0x00000002   PAD
    0x080009fc   0x080009fc   0x0000004c   Code   RO          233    i.ADC_Init          stm32f4xx_adc.o
    0x08000a48   0x08000a48   0x000000e4   Code   RO         4956    i.ADC_Mode_Config   adc.o
    0x08000b2c   0x08000b2c   0x00000074   Code   RO          238    i.ADC_RegularChannelConfig  stm32f4xx_adc.o
    0x08000ba0   0x08000ba0   0x0000000a   Code   RO          240    i.ADC_SoftwareStartConv  stm32f4xx_adc.o
    0x08000baa   0x08000baa   0x00000014   Code   RO          242    i.ADC_StructInit    stm32f4xx_adc.o
    0x08000bbe   0x08000bbe   0x00000002   PAD
    0x08000bc0   0x08000bc0   0x0000002c   Code   RO         5172    i.ASMS_GPIO_Config  asms.o
    0x08000bec   0x08000bec   0x00000054   Code   RO         5196    i.ASSI_GPIO_Config  assi.o
    0x08000c40   0x08000c40   0x00000070   Code   RO         5244    i.BCKP_IO_GPIO_Config  bckp_io.o
    0x08000cb0   0x08000cb0   0x0000003c   Code   RO         5124    i.BEEP_GPIO_Config  beep.o
    0x08000cec   0x08000cec   0x00000034   Code   RO         5148    i.BRAKE_LED_GPIO_Config  brake_led.o
    0x08000d20   0x08000d20   0x00000124   Code   RO         4991    i.CAN1_Config       can.o
    0x08000e44   0x08000e44   0x000000f4   Code   RO         4838    i.CAN1_Ctrl_Send    stm32f4xx_it.o
    0x08000f38   0x08000f38   0x000001a0   Code   RO         4839    i.CAN1_RX0_IRQHandler  stm32f4xx_it.o
    0x080010d8   0x080010d8   0x0000012c   Code   RO         4992    i.CAN2_Config       can.o
    0x08001204   0x08001204   0x00000040   Code   RO         4840    i.CAN2_Ctrl_Send    stm32f4xx_it.o
    0x08001244   0x08001244   0x00000134   Code   RO         4841    i.CAN2_RX0_IRQHandler  stm32f4xx_it.o
    0x08001378   0x08001378   0x00000038   Code   RO          457    i.CAN_DeInit        stm32f4xx_can.o
    0x080013b0   0x080013b0   0x000000d4   Code   RO          459    i.CAN_FilterInit    stm32f4xx_can.o
    0x08001484   0x08001484   0x00000014   Code   RO          465    i.CAN_ITConfig      stm32f4xx_can.o
    0x08001498   0x08001498   0x00000104   Code   RO          466    i.CAN_Init          stm32f4xx_can.o
    0x0800159c   0x0800159c   0x00000082   Code   RO          469    i.CAN_Receive       stm32f4xx_can.o
    0x0800161e   0x0800161e   0x00000020   Code   RO          472    i.CAN_StructInit    stm32f4xx_can.o
    0x0800163e   0x0800163e   0x000000b6   Code   RO          474    i.CAN_Transmit      stm32f4xx_can.o
    0x080016f4   0x080016f4   0x00000088   Code   RO          475    i.CAN_TransmitStatus  stm32f4xx_can.o
    0x0800177c   0x0800177c   0x00000018   Code   RO         1213    i.DMA_Cmd           stm32f4xx_dma.o
    0x08001794   0x08001794   0x00000054   Code   RO         1225    i.DMA_Init          stm32f4xx_dma.o
    0x080017e8   0x080017e8   0x00000098   Code   RO         5088    i.Debug_USART_Config  debug_usart.o
    0x08001880   0x08001880   0x00000040   Code   RO         4842    i.EXTI1_IRQHandler  stm32f4xx_it.o
    0x080018c0   0x080018c0   0x0000000c   Code   RO         1344    i.EXTI_ClearITPendingBit  stm32f4xx_exti.o
    0x080018cc   0x080018cc   0x00000014   Code   RO         1348    i.EXTI_GetITStatus  stm32f4xx_exti.o
    0x080018e0   0x080018e0   0x00000074   Code   RO         1349    i.EXTI_Init         stm32f4xx_exti.o
    0x08001954   0x08001954   0x0000007c   Code   RO         1857    i.GPIO_Init         stm32f4xx_gpio.o
    0x080019d0   0x080019d0   0x00000020   Code   RO         1858    i.GPIO_PinAFConfig  stm32f4xx_gpio.o
    0x080019f0   0x080019f0   0x0000000e   Code   RO         1861    i.GPIO_ReadInputDataBit  stm32f4xx_gpio.o
    0x080019fe   0x080019fe   0x00000004   Code   RO         1864    i.GPIO_ResetBits    stm32f4xx_gpio.o
    0x08001a02   0x08001a02   0x00000004   Code   RO         1865    i.GPIO_SetBits      stm32f4xx_gpio.o
    0x08001a06   0x08001a06   0x0000001c   Code   RO         5273    i.InitQueue         msg_queue.o
    0x08001a22   0x08001a22   0x00000002   PAD
    0x08001a24   0x08001a24   0x00000020   Code   RO         5274    i.Init_CanMsg_Queue  msg_queue.o
    0x08001a44   0x08001a44   0x00000050   Code   RO         5064    i.LED_GPIO_Config   led.o
    0x08001a94   0x08001a94   0x00000062   Code   RO         5379    i.NVIC_Configure    nvic.o
    0x08001af6   0x08001af6   0x00000002   PAD
    0x08001af8   0x08001af8   0x00000068   Code   RO          155    i.NVIC_Init         misc.o
    0x08001b60   0x08001b60   0x00000014   Code   RO          156    i.NVIC_PriorityGroupConfig  misc.o
    0x08001b74   0x08001b74   0x0000000c   Code   RO         2426    i.PWR_BackupAccessCmd  stm32f4xx_pwr.o
    0x08001b80   0x08001b80   0x0000001c   Code   RO         2561    i.RCC_AHB1PeriphClockCmd  stm32f4xx_rcc.o
    0x08001b9c   0x08001b9c   0x0000001c   Code   RO         2570    i.RCC_APB1PeriphClockCmd  stm32f4xx_rcc.o
    0x08001bb8   0x08001bb8   0x0000001c   Code   RO         2572    i.RCC_APB1PeriphResetCmd  stm32f4xx_rcc.o
    0x08001bd4   0x08001bd4   0x0000001c   Code   RO         2573    i.RCC_APB2PeriphClockCmd  stm32f4xx_rcc.o
    0x08001bf0   0x08001bf0   0x000000a4   Code   RO         2582    i.RCC_GetClocksFreq  stm32f4xx_rcc.o
    0x08001c94   0x08001c94   0x00000038   Code   RO         2583    i.RCC_GetFlagStatus  stm32f4xx_rcc.o
    0x08001ccc   0x08001ccc   0x00000020   Code   RO         2591    i.RCC_LSEConfig     stm32f4xx_rcc.o
    0x08001cec   0x08001cec   0x0000000c   Code   RO         2605    i.RCC_RTCCLKCmd     stm32f4xx_rcc.o
    0x08001cf8   0x08001cf8   0x00000030   Code   RO         2606    i.RCC_RTCCLKConfig  stm32f4xx_rcc.o
    0x08001d28   0x08001d28   0x00000040   Code   RO         4843    i.ROS_Ctrl_Send     stm32f4xx_it.o
    0x08001d68   0x08001d68   0x00000012   Code   RO         2968    i.RTC_Bcd2ToByte    stm32f4xx_rtc.o
    0x08001d7a   0x08001d7a   0x00000018   Code   RO         2970    i.RTC_ByteToBcd2    stm32f4xx_rtc.o
    0x08001d92   0x08001d92   0x00000052   Code   RO         5403    i.RTC_CLK_Config    rtc.o
    0x08001de4   0x08001de4   0x00000044   Code   RO         2980    i.RTC_EnterInitMode  stm32f4xx_rtc.o
    0x08001e28   0x08001e28   0x00000010   Code   RO         2981    i.RTC_ExitInitMode  stm32f4xx_rtc.o
    0x08001e38   0x08001e38   0x00000048   Code   RO         2984    i.RTC_GetDate       stm32f4xx_rtc.o
    0x08001e80   0x08001e80   0x0000004c   Code   RO         2989    i.RTC_GetTime       stm32f4xx_rtc.o
    0x08001ecc   0x08001ecc   0x00000050   Code   RO         2994    i.RTC_Init          stm32f4xx_rtc.o
    0x08001f1c   0x08001f1c   0x000000a4   Code   RO         3000    i.RTC_SetDate       stm32f4xx_rtc.o
    0x08001fc0   0x08001fc0   0x000000a8   Code   RO         3001    i.RTC_SetTime       stm32f4xx_rtc.o
    0x08002068   0x08002068   0x00000054   Code   RO         5404    i.RTC_TimeAndDate_Set  rtc.o
    0x080020bc   0x080020bc   0x0000004c   Code   RO         3017    i.RTC_WaitForSynchro  stm32f4xx_rtc.o
    0x08002108   0x08002108   0x00000014   Code   RO         3020    i.RTC_WriteBackupRegister  stm32f4xx_rtc.o
    0x0800211c   0x0800211c   0x00000030   Code   RO         5220    i.SC_GPIO_Config    circult.o
    0x0800214c   0x0800214c   0x0000002c   Code   RO         3884    i.SYSCFG_EXTILineConfig  stm32f4xx_syscfg.o
    0x08002178   0x08002178   0x000000b8   Code   RO           13    i.SetSysClock       system_stm32f4xx.o
    0x08002230   0x08002230   0x0000005c   Code   RO           15    i.SystemInit        system_stm32f4xx.o
    0x0800228c   0x0800228c   0x000015cc   Code   RO         4844    i.TIM5_IRQHandler   stm32f4xx_it.o
    0x08003858   0x08003858   0x00000006   Code   RO         3952    i.TIM_ClearITPendingBit  stm32f4xx_tim.o
    0x0800385e   0x0800385e   0x00000018   Code   RO         3957    i.TIM_Cmd           stm32f4xx_tim.o
    0x08003876   0x08003876   0x00000018   Code   RO         3978    i.TIM_GetITStatus   stm32f4xx_tim.o
    0x0800388e   0x0800388e   0x00000014   Code   RO         3982    i.TIM_ITConfig      stm32f4xx_tim.o
    0x080038a2   0x080038a2   0x00000002   PAD
    0x080038a4   0x080038a4   0x0000007c   Code   RO         4029    i.TIM_TimeBaseInit  stm32f4xx_tim.o
    0x08003920   0x08003920   0x00000040   Code   RO         4930    i.TIM_Timer_Init    timer.o
    0x08003960   0x08003960   0x00000018   Code   RO         4511    i.USART_Cmd         stm32f4xx_usart.o
    0x08003978   0x08003978   0x000000bc   Code   RO         4518    i.USART_Init        stm32f4xx_usart.o
    0x08003a34   0x08003a34   0x00000008   Code   RO         4528    i.USART_SendData    stm32f4xx_usart.o
    0x08003a3c   0x08003a3c   0x00000030   Code   RO         5780    i.__ARM_fpclassify  m_wm.l(fpclassify.o)
    0x08003a6c   0x08003a6c   0x00000004   PAD
    0x08003a70   0x08003a70   0x00000c50   Code   RO         5430    i.__hardfp_pow      m_wm.l(pow.o)
    0x080046c0   0x080046c0   0x000000f8   Code   RO         5782    i.__kernel_poly     m_wm.l(poly.o)
    0x080047b8   0x080047b8   0x00000030   Code   RO         5760    i.__mathlib_dbl_divzero  m_wm.l(dunder.o)
    0x080047e8   0x080047e8   0x00000014   Code   RO         5762    i.__mathlib_dbl_infnan2  m_wm.l(dunder.o)
    0x080047fc   0x080047fc   0x00000004   PAD
    0x08004800   0x08004800   0x00000020   Code   RO         5763    i.__mathlib_dbl_invalid  m_wm.l(dunder.o)
    0x08004820   0x08004820   0x00000020   Code   RO         5764    i.__mathlib_dbl_overflow  m_wm.l(dunder.o)
    0x08004840   0x08004840   0x00000020   Code   RO         5766    i.__mathlib_dbl_underflow  m_wm.l(dunder.o)
    0x08004860   0x08004860   0x0000000e   Code   RO         5848    i.__scatterload_copy  mc_w.l(handlers.o)
    0x0800486e   0x0800486e   0x00000002   Code   RO         5849    i.__scatterload_null  mc_w.l(handlers.o)
    0x08004870   0x08004870   0x0000000e   Code   RO         5850    i.__scatterload_zeroinit  mc_w.l(handlers.o)
    0x0800487e   0x0800487e   0x00000002   PAD
    0x08004880   0x08004880   0x0000000c   Code   RO         5826    i.__set_errno       mc_w.l(errno.o)
    0x0800488c   0x0800488c   0x00000018   Code   RO         5776    i.fabs              m_wm.l(fabs.o)
    0x080048a4   0x080048a4   0x00000040   Code   RO         4845    i.isBrake           stm32f4xx_it.o
    0x080048e4   0x080048e4   0x00000080   Code   RO         4765    i.main              main.o
    0x08004964   0x08004964   0x0000006c   Code   RO         5713    i.malloc            mc_w.l(malloc.o)
    0x080049d0   0x080049d0   0x0000006e   Code   RO         5787    i.sqrt              m_wm.l(sqrt.o)
    0x08004a3e   0x08004a3e   0x00000002   PAD
    0x08004a40   0x08004a40   0x00000088   Data   RO         5433    .constdata          m_wm.l(pow.o)
    0x08004ac8   0x08004ac8   0x00000008   Data   RO         5784    .constdata          m_wm.l(qnan.o)
    0x08004ad0   0x08004ad0   0x00000020   Data   RO         5846    Region$$Table       anon$$obj.o


    Execution Region RW_IRAM1 (Exec base: 0x20000000, Load base: 0x08004af0, Size: 0x000008b0, Max: 0x00020000, ABSOLUTE, COMPRESSED[0x000000b8])

    Exec Addr    Load Addr    Size         Type   Attr      Idx    E Section Name        Object

    0x20000000   COMPRESSED   0x00000010   Data   RW         2614    .data               stm32f4xx_rcc.o
    0x20000010   COMPRESSED   0x00000060   Data   RW         4852    .data               stm32f4xx_it.o
    0x20000070   COMPRESSED   0x00000006   Data   RW         4957    .data               adc.o
    0x20000076   COMPRESSED   0x00000002   PAD
    0x20000078   COMPRESSED   0x00000014   Data   RW         4995    .data               can.o
    0x2000008c   COMPRESSED   0x00000014   Data   RW         4997    .data               can.o
    0x200000a0   COMPRESSED   0x00000014   Data   RW         5001    .data               can.o
    0x200000b4   COMPRESSED   0x00000014   Data   RW         5002    .data               can.o
    0x200000c8   COMPRESSED   0x00000014   Data   RW         5003    .data               can.o
    0x200000dc   COMPRESSED   0x00000014   Data   RW         5006    .data               can.o
    0x200000f0   COMPRESSED   0x00000014   Data   RW         5007    .data               can.o
    0x20000104   COMPRESSED   0x00000014   Data   RW         5008    .data               can.o
    0x20000118   COMPRESSED   0x00000014   Data   RW         5011    .data               can.o
    0x2000012c   COMPRESSED   0x00000014   Data   RW         5012    .data               can.o
    0x20000140   COMPRESSED   0x00000014   Data   RW         5013    .data               can.o
    0x20000154   COMPRESSED   0x00000014   Data   RW         5014    .data               can.o
    0x20000168   COMPRESSED   0x00000014   Data   RW         5015    .data               can.o
    0x2000017c   COMPRESSED   0x00000014   Data   RW         5016    .data               can.o
    0x20000190   COMPRESSED   0x00000014   Data   RW         5017    .data               can.o
    0x200001a4   COMPRESSED   0x00000014   Data   RW         5018    .data               can.o
    0x200001b8   COMPRESSED   0x00000014   Data   RW         5019    .data               can.o
    0x200001cc   COMPRESSED   0x00000014   Data   RW         5020    .data               can.o
    0x200001e0   COMPRESSED   0x00000010   Data   RW         5278    .data               msg_queue.o
    0x200001f0   COMPRESSED   0x00000004   Data   RW         5822    .data               mc_w.l(mvars.o)
    0x200001f4   COMPRESSED   0x00000004   Data   RW         5823    .data               mc_w.l(mvars.o)
    0x200001f8   COMPRESSED   0x00000004   Data   RW         5827    .data               mc_w.l(errno.o)
    0x200001fc        -       0x000000b0   Zero   RW         4848    .bss                stm32f4xx_it.o
    0x200002ac   COMPRESSED   0x00000004   PAD
    0x200002b0        -       0x00000200   Zero   RW            2    HEAP                startup_stm32f40xx.o
    0x200004b0        -       0x00000400   Zero   RW            1    STACK               startup_stm32f40xx.o


==============================================================================

Image component sizes


      Code (inc. data)   RO Data    RW Data    ZI Data      Debug   Object Name

       346         24          0          6          0       2344   adc.o
        44          4          0          0          0        551   asms.o
        84         12          0          0          0        587   assi.o
       112         14          0          0          0        650   bckp_io.o
        60          4          0          0          0        559   beep.o
        52          6          0          0          0        588   brake_led.o
       592         22          0        360          0       3031   can.o
        48          6          0          0          0        565   circult.o
       152         10          0          0          0        701   debug_usart.o
        80         10          0          0          0        578   led.o
       128         14          0          0          0       2759   main.o
       124         16          0          0          0       1843   misc.o
        60          4          0         16          0       2446   msg_queue.o
        98          0          0          0          0        633   nvic.o
       166          0          0          0          0       1247   rtc.o
        36          8        392          0       1536        976   startup_stm32f40xx.o
       334         20          0          0          0       7044   stm32f4xx_adc.o
      1028         34          0          0          0       7387   stm32f4xx_can.o
       108          4          0          0          0       2685   stm32f4xx_dma.o
       148         16          0          0          0       2556   stm32f4xx_exti.o
       178          0          0          0          0       4027   stm32f4xx_gpio.o
      6804        576          0         96        176      13396   stm32f4xx_it.o
        12          6          0          0          0        602   stm32f4xx_pwr.o
       424         64          0         16          0       8747   stm32f4xx_rcc.o
       782         56          0          0          0       9109   stm32f4xx_rtc.o
        44          6          0          0          0        740   stm32f4xx_syscfg.o
       198         28          0          0          0       4322   stm32f4xx_tim.o
       220          8          0          0          0       3126   stm32f4xx_usart.o
       276         34          0          0          0     346381   system_stm32f4xx.o
        64          4          0          0          0        661   timer.o

    ----------------------------------------------------------------------
     12812       1010        424        496       1716     430841   Object Totals
         0          0         32          0          0          0   (incl. Generated)
        10          0          0          2          4          0   (incl. Padding)

    ----------------------------------------------------------------------

      Code (inc. data)   RO Data    RW Data    ZI Data      Debug   Library Member Name

       164         44          0          0          0        620   dunder.o
        24          0          0          0          0        124   fabs.o
        48          0          0          0          0        124   fpclassify.o
       248          0          0          0          0        152   poly.o
      3152        296        136          0          0        352   pow.o
         0          0          8          0          0          0   qnan.o
       110          0          0          0          0        148   sqrt.o
        94          0          0          0          0          0   __dclz77c.o
         0          0          0          0          0          0   entry.o
         0          0          0          0          0          0   entry10a.o
         0          0          0          0          0          0   entry11a.o
         8          4          0          0          0          0   entry2.o
         4          0          0          0          0          0   entry5.o
         0          0          0          0          0          0   entry7b.o
         0          0          0          0          0          0   entry8b.o
         8          4          0          0          0          0   entry9a.o
        12          6          0          4          0         68   errno.o
        30          0          0          0          0          0   handlers.o
        36          8          0          0          0         68   init.o
         0          0          0          0          0          0   iusefp.o
        30          0          0          0          0         68   llshl.o
        36          0          0          0          0         68   llsshr.o
        32          0          0          0          0         68   llushr.o
       108         16          0          0          0         84   malloc.o
        36          0          0          0          0         68   memcpya.o
         0          0          0          8          0          0   mvars.o
        48          0          0          0          0         68   cdcmple.o
        48          0          0          0          0         68   cdrcmple.o
        56          0          0          0          0         88   d2f.o
       334          0          0          0          0        148   dadd.o
       222          0          0          0          0        100   ddiv.o
       186          0          0          0          0        176   depilogue.o
        62          0          0          0          0         80   dfixi.o
        50          0          0          0          0         76   dfixui.o
        34          0          0          0          0         76   dflti.o
        26          0          0          0          0         76   dfltui.o
       228          0          0          0          0         96   dmul.o
        46          0          0          0          0         80   dscalb.o
       162          0          0          0          0        100   dsqrt.o
       110          0          0          0          0        168   fepilogue.o

    ----------------------------------------------------------------------
      5804        378        144         12          0       3412   Library Totals
        12          0          0          0          0          0   (incl. Padding)

    ----------------------------------------------------------------------

      Code (inc. data)   RO Data    RW Data    ZI Data      Debug   Library Name

      3746        340        144          0          0       1520   m_wm.l
       434         38          0         12          0        492   mc_w.l
      1612          0          0          0          0       1400   mf_w.l

    ----------------------------------------------------------------------
      5804        378        144         12          0       3412   Library Totals

    ----------------------------------------------------------------------

==============================================================================


      Code (inc. data)   RO Data    RW Data    ZI Data      Debug   

     18616       1388        568        508       1716     424149   Grand Totals
     18616       1388        568        184       1716     424149   ELF Image Totals (compressed)
     18616       1388        568        184          0          0   ROM Totals

==============================================================================

    Total RO  Size (Code + RO Data)                19184 (  18.73kB)
    Total RW  Size (RW Data + ZI Data)              2224 (   2.17kB)
    Total ROM Size (Code + RO Data + RW Data)      19368 (  18.91kB)

==============================================================================

